{
  "contractName": "Battleship",
  "abi": [
    {
      "constant": true,
      "inputs": [
        {
          "name": "",
          "type": "bytes32"
        }
      ],
      "name": "games",
      "outputs": [
        {
          "name": "status",
          "type": "uint8"
        },
        {
          "name": "gridSize",
          "type": "uint8"
        },
        {
          "name": "targetIndex",
          "type": "uint8"
        },
        {
          "name": "owner",
          "type": "address"
        },
        {
          "name": "challenger",
          "type": "address"
        },
        {
          "name": "turn",
          "type": "address"
        },
        {
          "name": "winner",
          "type": "address"
        },
        {
          "name": "funds",
          "type": "uint256"
        },
        {
          "name": "num",
          "type": "uint256"
        },
        {
          "name": "exists",
          "type": "bool"
        }
      ],
      "payable": false,
      "stateMutability": "view",
      "type": "function"
    },
    {
      "constant": true,
      "inputs": [],
      "name": "getstate0",
      "outputs": [
        {
          "name": "",
          "type": "uint256"
        }
      ],
      "payable": false,
      "stateMutability": "view",
      "type": "function"
    },
    {
      "constant": true,
      "inputs": [],
      "name": "getstate1",
      "outputs": [
        {
          "name": "",
          "type": "uint256"
        }
      ],
      "payable": false,
      "stateMutability": "view",
      "type": "function"
    },
    {
      "constant": true,
      "inputs": [],
      "name": "getstate2",
      "outputs": [
        {
          "name": "",
          "type": "uint256"
        }
      ],
      "payable": false,
      "stateMutability": "view",
      "type": "function"
    },
    {
      "constant": true,
      "inputs": [
        {
          "name": "gameId",
          "type": "bytes32"
        }
      ],
      "name": "getStatus",
      "outputs": [
        {
          "name": "",
          "type": "uint8"
        }
      ],
      "payable": false,
      "stateMutability": "view",
      "type": "function"
    },
    {
      "constant": true,
      "inputs": [
        {
          "name": "gameId",
          "type": "bytes32"
        }
      ],
      "name": "getChallenger",
      "outputs": [
        {
          "name": "",
          "type": "address"
        }
      ],
      "payable": false,
      "stateMutability": "view",
      "type": "function"
    },
    {
      "constant": true,
      "inputs": [
        {
          "name": "gameId",
          "type": "bytes32"
        }
      ],
      "name": "getOwner",
      "outputs": [
        {
          "name": "",
          "type": "address"
        }
      ],
      "payable": false,
      "stateMutability": "view",
      "type": "function"
    },
    {
      "constant": true,
      "inputs": [
        {
          "name": "gameId",
          "type": "bytes32"
        }
      ],
      "name": "getWinner",
      "outputs": [
        {
          "name": "",
          "type": "address"
        }
      ],
      "payable": false,
      "stateMutability": "view",
      "type": "function"
    },
    {
      "constant": true,
      "inputs": [
        {
          "name": "gameId",
          "type": "bytes32"
        }
      ],
      "name": "getTurn",
      "outputs": [
        {
          "name": "",
          "type": "address"
        }
      ],
      "payable": false,
      "stateMutability": "view",
      "type": "function"
    },
    {
      "constant": true,
      "inputs": [
        {
          "name": "gameId",
          "type": "bytes32"
        }
      ],
      "name": "getTargetIndex",
      "outputs": [
        {
          "name": "",
          "type": "uint8"
        }
      ],
      "payable": false,
      "stateMutability": "view",
      "type": "function"
    },
    {
      "constant": true,
      "inputs": [
        {
          "name": "gameId",
          "type": "bytes32"
        },
        {
          "name": "player",
          "type": "address"
        }
      ],
      "name": "getGameTarget",
      "outputs": [
        {
          "name": "",
          "type": "int256[]"
        }
      ],
      "payable": false,
      "stateMutability": "view",
      "type": "function"
    },
    {
      "constant": true,
      "inputs": [
        {
          "name": "gameId",
          "type": "bytes32"
        },
        {
          "name": "player",
          "type": "address"
        }
      ],
      "name": "getGameOcean",
      "outputs": [
        {
          "name": "",
          "type": "int256[]"
        }
      ],
      "payable": false,
      "stateMutability": "view",
      "type": "function"
    },
    {
      "constant": false,
      "inputs": [
        {
          "name": "gameId",
          "type": "bytes32"
        },
        {
          "name": "secret",
          "type": "bytes32"
        }
      ],
      "name": "joinGame",
      "outputs": [],
      "payable": true,
      "stateMutability": "payable",
      "type": "function"
    },
    {
      "constant": false,
      "inputs": [
        {
          "name": "gameId",
          "type": "bytes32"
        },
        {
          "name": "x",
          "type": "uint8"
        },
        {
          "name": "y",
          "type": "uint8"
        }
      ],
      "name": "attack",
      "outputs": [],
      "payable": true,
      "stateMutability": "payable",
      "type": "function"
    },
    {
      "constant": false,
      "inputs": [
        {
          "name": "gameId",
          "type": "bytes32"
        },
        {
          "name": "x",
          "type": "uint8"
        },
        {
          "name": "y",
          "type": "uint8"
        },
        {
          "name": "hitt",
          "type": "bool"
        }
      ],
      "name": "counterAttack",
      "outputs": [],
      "payable": true,
      "stateMutability": "payable",
      "type": "function"
    },
    {
      "constant": false,
      "inputs": [
        {
          "name": "gameId",
          "type": "bytes32"
        },
        {
          "name": "salt",
          "type": "string"
        },
        {
          "name": "ship",
          "type": "string"
        },
        {
          "name": "player",
          "type": "address"
        }
      ],
      "name": "reveal",
      "outputs": [],
      "payable": false,
      "stateMutability": "nonpayable",
      "type": "function"
    },
    {
      "constant": false,
      "inputs": [
        {
          "name": "gameId",
          "type": "bytes32"
        }
      ],
      "name": "withdraw",
      "outputs": [],
      "payable": false,
      "stateMutability": "nonpayable",
      "type": "function"
    },
    {
      "constant": false,
      "inputs": [
        {
          "name": "grid",
          "type": "int256[]"
        }
      ],
      "name": "getGridState",
      "outputs": [
        {
          "name": "",
          "type": "uint256[3]"
        }
      ],
      "payable": true,
      "stateMutability": "payable",
      "type": "function"
    },
    {
      "constant": true,
      "inputs": [
        {
          "name": "player",
          "type": "address"
        },
        {
          "name": "gameId",
          "type": "bytes32"
        }
      ],
      "name": "getMoveList",
      "outputs": [
        {
          "name": "",
          "type": "uint8[100]"
        }
      ],
      "payable": false,
      "stateMutability": "view",
      "type": "function"
    }
  ],
  "bytecode": "0x6080604052670de0b6b3a764000060005560006001556000600255600060035534801561002b57600080fd5b506124ea8061003b6000396000f3fe6080604052600436106101145760003560e01c8063862f854b116100a0578063c077715611610064578063c0777156146107cd578063c51329611461087d578063d62d16fc146108c5578063deb931a214610940578063f579f882146109bb57610114565b8063862f854b146104f25780638cb563b2146105475780638e19899e146106d0578063b1f3e90f1461070b578063bea6a18a1461073657610114565b80634df10267116100e75780634df102671461023e5780635de28ae0146102765780637110bfb2146102d3578063820e0d1f1461038357806382f2fdf5146103fe57610114565b80631e5f9149146101195780632156fc3f14610194578063323842a0146101bf5780634939ce3e14610213575b600080fd5b34801561012557600080fd5b506101526004803603602081101561013c57600080fd5b8101908080359060200190929190505050610b17565b604051808273ffffffffffffffffffffffffffffffffffffffff1673ffffffffffffffffffffffffffffffffffffffff16815260200191505060405180910390f35b3480156101a057600080fd5b506101a9610b57565b6040518082815260200191505060405180910390f35b610211600480360360808110156101d557600080fd5b8101908080359060200190929190803560ff169060200190929190803560ff169060200190929190803515159060200190929190505050610b61565b005b34801561021f57600080fd5b50610228610ef8565b6040518082815260200191505060405180910390f35b6102746004803603604081101561025457600080fd5b810190808035906020019092919080359060200190929190505050610f02565b005b34801561028257600080fd5b506102af6004803603602081101561029957600080fd5b81019080803590602001909291905050506114b2565b604051808260048111156102bf57fe5b60ff16815260200191505060405180910390f35b3480156102df57600080fd5b5061032c600480360360408110156102f657600080fd5b8101908080359060200190929190803573ffffffffffffffffffffffffffffffffffffffff1690602001909291905050506114df565b6040518080602001828103825283818151815260200191508051906020019060200280838360005b8381101561036f578082015181840152602081019050610354565b505050509050019250505060405180910390f35b34801561038f57600080fd5b506103bc600480360360208110156103a657600080fd5b810190808035906020019092919050505061158b565b604051808273ffffffffffffffffffffffffffffffffffffffff1673ffffffffffffffffffffffffffffffffffffffff16815260200191505060405180910390f35b6104b46004803603602081101561041457600080fd5b810190808035906020019064010000000081111561043157600080fd5b82018360208201111561044357600080fd5b8035906020019184602083028401116401000000008311171561046557600080fd5b919080806020026020016040519081016040528093929190818152602001838360200280828437600081840152601f19601f8201169050808301925050505050505091929192905050506115cb565b6040518082600360200280838360005b838110156104df5780820151818401526020810190506104c4565b5050505090500191505060405180910390f35b3480156104fe57600080fd5b5061052b6004803603602081101561051557600080fd5b81019080803590602001909291905050506116e2565b604051808260ff1660ff16815260200191505060405180910390f35b34801561055357600080fd5b506106ce6004803603608081101561056a57600080fd5b81019080803590602001909291908035906020019064010000000081111561059157600080fd5b8201836020820111156105a357600080fd5b803590602001918460018302840111640100000000831117156105c557600080fd5b91908080601f016020809104026020016040519081016040528093929190818152602001838380828437600081840152601f19601f8201169050808301925050505050505091929192908035906020019064010000000081111561062857600080fd5b82018360208201111561063a57600080fd5b8035906020019184600183028401116401000000008311171561065c57600080fd5b91908080601f016020809104026020016040519081016040528093929190818152602001838380828437600081840152601f19601f820116905080830192505050505050509192919290803573ffffffffffffffffffffffffffffffffffffffff16906020019092919050505061170f565b005b3480156106dc57600080fd5b50610709600480360360208110156106f357600080fd5b81019080803590602001909291905050506119e8565b005b34801561071757600080fd5b50610720611ae9565b6040518082815260200191505060405180910390f35b34801561074257600080fd5b5061078f6004803603604081101561075957600080fd5b81019080803573ffffffffffffffffffffffffffffffffffffffff16906020019092919080359060200190929190505050611af3565b6040518082606460200280838360005b838110156107ba57808201518184015260208101905061079f565b5050505090500191505060405180910390f35b3480156107d957600080fd5b50610826600480360360408110156107f057600080fd5b8101908080359060200190929190803573ffffffffffffffffffffffffffffffffffffffff169060200190929190505050611c65565b6040518080602001828103825283818151815260200191508051906020019060200280838360005b8381101561086957808201518184015260208101905061084e565b505050509050019250505060405180910390f35b6108c36004803603606081101561089357600080fd5b8101908080359060200190929190803560ff169060200190929190803560ff169060200190929190505050611d20565b005b3480156108d157600080fd5b506108fe600480360360208110156108e857600080fd5b8101908080359060200190929190505050611e3f565b604051808273ffffffffffffffffffffffffffffffffffffffff1673ffffffffffffffffffffffffffffffffffffffff16815260200191505060405180910390f35b34801561094c57600080fd5b506109796004803603602081101561096357600080fd5b8101908080359060200190929190505050611e7f565b604051808273ffffffffffffffffffffffffffffffffffffffff1673ffffffffffffffffffffffffffffffffffffffff16815260200191505060405180910390f35b3480156109c757600080fd5b506109f4600480360360208110156109de57600080fd5b8101908080359060200190929190505050611ebf565b604051808b6004811115610a0457fe5b60ff1681526020018a60ff1660ff1681526020018960ff1660ff1681526020018873ffffffffffffffffffffffffffffffffffffffff1673ffffffffffffffffffffffffffffffffffffffff1681526020018773ffffffffffffffffffffffffffffffffffffffff1673ffffffffffffffffffffffffffffffffffffffff1681526020018673ffffffffffffffffffffffffffffffffffffffff1673ffffffffffffffffffffffffffffffffffffffff1681526020018573ffffffffffffffffffffffffffffffffffffffff1673ffffffffffffffffffffffffffffffffffffffff168152602001848152602001838152602001821515151581526020019a505050505050505050505060405180910390f35b6000600b600083815260200190815260200160002060030160009054906101000a900473ffffffffffffffffffffffffffffffffffffffff169050919050565b6000600554905090565b8360026004811115610b6f57fe5b600b600083815260200190815260200160002060000160009054906101000a900460ff166004811115610b9e57fe5b14610ba857600080fd5b84600b600082815260200190815260200160002060020160009054906101000a900473ffffffffffffffffffffffffffffffffffffffff1673ffffffffffffffffffffffffffffffffffffffff163373ffffffffffffffffffffffffffffffffffffffff1614610c1757600080fd5b6000610c238686611fc7565b90506000610c318833611fdc565b90506000600b60008a815260200190815260200160002060000160029054906101000a900460ff16905085610c86577fffffffffffffffffffffffffffffffffffffffffffffffffffffffffffffffff610c89565b60015b60000b600b60008b815260200190815260200160002060080160008473ffffffffffffffffffffffffffffffffffffffff1673ffffffffffffffffffffffffffffffffffffffff1681526020019081526020016000208260ff1681548110610ced57fe5b9060005260206000200181905550610d07893384866120c3565b610d0f612362565b610db9600b60008c815260200190815260200160002060080160008573ffffffffffffffffffffffffffffffffffffffff1673ffffffffffffffffffffffffffffffffffffffff168152602001908152602001600020805480602002602001604051908101604052809291908181526020018280548015610daf57602002820191906000526020600020905b815481526020019060010190808311610d9b575b50505050506115cb565b905060006011905081600060038110610dce57fe5b602002015160058190555081600160038110610de657fe5b602002015160048190555081600260038110610dfe57fe5b602002015160068190555060008183600160038110610e1957fe5b602002015110159050600083600260038110610e3157fe5b602002015184600160038110610e4357fe5b602002015184031190508180610e565750805b15610ee9576003600b60008f815260200190815260200160002060000160006101000a81548160ff02191690836004811115610e8e57fe5b021790555085600b60008f815260200190815260200160002060030160006101000a81548173ffffffffffffffffffffffffffffffffffffffff021916908373ffffffffffffffffffffffffffffffffffffffff1602179055505b50505050505050505050505050565b6000600454905090565b8160006004811115610f1057fe5b600b600083815260200190815260200160002060000160009054906101000a900460ff166004811115610f3f57fe5b14610f4957600080fd5b6000543414610fc0576040517f08c379a000000000000000000000000000000000000000000000000000000000815260040180806020018281038252600b8152602001807f626964203120657468657200000000000000000000000000000000000000000081525060200191505060405180910390fd5b600b600084815260200190815260200160002060120160009054906101000a900460ff16611255576000600b6000858152602001908152602001600020600501819055506000600b600085815260200190815260200160002060000160006101000a81548160ff0219169083600481111561103757fe5b0217905550600a600b600085815260200190815260200160002060000160016101000a81548160ff021916908360ff16021790555033600b600085815260200190815260200160002060000160036101000a81548173ffffffffffffffffffffffffffffffffffffffff021916908373ffffffffffffffffffffffffffffffffffffffff16021790555033600b600085815260200190815260200160002060020160006101000a81548173ffffffffffffffffffffffffffffffffffffffff021916908373ffffffffffffffffffffffffffffffffffffffff16021790555081600b600085815260200190815260200160002060060160003373ffffffffffffffffffffffffffffffffffffffff1673ffffffffffffffffffffffffffffffffffffffff16815260200190815260200160002081905550606460405190808252806020026020018201604052801561119e5781602001602082028038833980820191505090505b50600b600085815260200190815260200160002060080160003373ffffffffffffffffffffffffffffffffffffffff1673ffffffffffffffffffffffffffffffffffffffff1681526020019081526020016000209080519060200190611205929190612384565b5034600b6000858152602001908152602001600020600401819055506001600b600085815260200190815260200160002060120160006101000a81548160ff0219169083151502179055506114ad565b34600b600085815260200190815260200160002060040154146112e0576040517f08c379a00000000000000000000000000000000000000000000000000000000081526004018080602001828103825260128152602001807f696e73756666696369656e742066756e6473000000000000000000000000000081525060200191505060405180910390fd5b6001600b600085815260200190815260200160002060000160006101000a81548160ff0219169083600481111561131357fe5b021790555033600b600085815260200190815260200160002060010160006101000a81548173ffffffffffffffffffffffffffffffffffffffff021916908373ffffffffffffffffffffffffffffffffffffffff16021790555081600b600085815260200190815260200160002060060160003373ffffffffffffffffffffffffffffffffffffffff1673ffffffffffffffffffffffffffffffffffffffff168152602001908152602001600020819055506002600b600085815260200190815260200160002060000160019054906101000a900460ff1660ff160a60ff166040519080825280602002602001820160405280156114205781602001602082028038833980820191505090505b50600b600085815260200190815260200160002060080160003373ffffffffffffffffffffffffffffffffffffffff1673ffffffffffffffffffffffffffffffffffffffff1681526020019081526020016000209080519060200190611487929190612384565b5034600b6000858152602001908152602001600020600401600082825401925050819055505b505050565b6000600b600083815260200190815260200160002060000160009054906101000a900460ff169050919050565b6060600b600084815260200190815260200160002060080160008373ffffffffffffffffffffffffffffffffffffffff1673ffffffffffffffffffffffffffffffffffffffff16815260200190815260200160002080548060200260200160405190810160405280929190818152602001828054801561157e57602002820191906000526020600020905b81548152602001906001019080831161156a575b5050505050905092915050565b6000600b600083815260200190815260200160002060010160009054906101000a900473ffffffffffffffffffffffffffffffffffffffff169050919050565b6115d3612362565b60006002819055506000600181905550600060038190555060008090505b82518110156116b9577fffffffffffffffffffffffffffffffffffffffffffffffffffffffffffffffff60000b83828151811061162a57fe5b6020026020010151141561164b576001600081548092919060010191905055505b600160000b83828151811061165c57fe5b6020026020010151141561167d576002600081548092919060010191905055505b600083828151811061168b57fe5b602002602001015114156116ac576003600081548092919060010191905055505b80806001019150506115f1565b506040518060600160405280600154815260200160025481526020016003548152509050919050565b6000600b600083815260200190815260200160002060000160029054906101000a900460ff169050919050565b836003600481111561171d57fe5b600b600083815260200190815260200160002060000160009054906101000a900460ff16600481111561174c57fe5b1461175657600080fd5b84600b600082815260200190815260200160002060000160039054906101000a900473ffffffffffffffffffffffffffffffffffffffff1673ffffffffffffffffffffffffffffffffffffffff163373ffffffffffffffffffffffffffffffffffffffff1614806118285750600b600082815260200190815260200160002060010160009054906101000a900473ffffffffffffffffffffffffffffffffffffffff1673ffffffffffffffffffffffffffffffffffffffff163373ffffffffffffffffffffffffffffffffffffffff16145b61183157600080fd5b856000600b600083815260200190815260200160002060070160003373ffffffffffffffffffffffffffffffffffffffff1673ffffffffffffffffffffffffffffffffffffffff168152602001908152602001600020805460018160011615610100020316600290049050146118a657600080fd5b600b600088815260200190815260200160002060060160008573ffffffffffffffffffffffffffffffffffffffff1673ffffffffffffffffffffffffffffffffffffffff168152602001908152602001600020546119048787612293565b14611977576040517f08c379a000000000000000000000000000000000000000000000000000000000815260040180806020018281038252600c8152602001807f796f75206368656174656421000000000000000000000000000000000000000081525060200191505060405180910390fd5b84600b600089815260200190815260200160002060070160008673ffffffffffffffffffffffffffffffffffffffff1673ffffffffffffffffffffffffffffffffffffffff16815260200190815260200160002090805190602001906119de9291906123d1565b5050505050505050565b806004808111156119f557fe5b600b600083815260200190815260200160002060000160009054906101000a900460ff166004811115611a2457fe5b14611a2e57600080fd5b3373ffffffffffffffffffffffffffffffffffffffff16600b600083815260200190815260200160002060030160009054906101000a900473ffffffffffffffffffffffffffffffffffffffff1673ffffffffffffffffffffffffffffffffffffffff1614611a9c57600080fd5b3373ffffffffffffffffffffffffffffffffffffffff166108fc6000549081150290604051600060405180830381858888f19350505050158015611ae4573d6000803e3d6000fd5b505050565b6000600654905090565b611afb612451565b8273ffffffffffffffffffffffffffffffffffffffff16600b600084815260200190815260200160002060000160039054906101000a900473ffffffffffffffffffffffffffffffffffffffff1673ffffffffffffffffffffffffffffffffffffffff161415611be457600b6000838152602001908152602001600020600a01606480602002604051908101604052809291908260648015611bd8576020028201916000905b82829054906101000a900460ff1660ff1681526020019060010190602082600001049283019260010382029150808411611ba15790505b50505050509050611c5f565b600b6000838152602001908152602001600020600e01606480602002604051908101604052809291908260648015611c57576020028201916000905b82829054906101000a900460ff1660ff1681526020019060010190602082600001049283019260010382029150808411611c205790505b505050505090505b92915050565b60606000611c738484611fdc565b9050600b600085815260200190815260200160002060080160008273ffffffffffffffffffffffffffffffffffffffff1673ffffffffffffffffffffffffffffffffffffffff168152602001908152602001600020805480602002602001604051908101604052809291908181526020018280548015611d1257602002820191906000526020600020905b815481526020019060010190808311611cfe575b505050505091505092915050565b8260016004811115611d2e57fe5b600b600083815260200190815260200160002060000160009054906101000a900460ff166004811115611d5d57fe5b14611d6757600080fd5b83600b600082815260200190815260200160002060020160009054906101000a900473ffffffffffffffffffffffffffffffffffffffff1673ffffffffffffffffffffffffffffffffffffffff163373ffffffffffffffffffffffffffffffffffffffff1614611dd657600080fd5b6000611de28585611fc7565b90506000611df08733611fdc565b90506002600b600089815260200190815260200160002060000160006101000a81548160ff02191690836004811115611e2557fe5b0217905550611e36873383856120c3565b50505050505050565b6000600b600083815260200190815260200160002060020160009054906101000a900473ffffffffffffffffffffffffffffffffffffffff169050919050565b6000600b600083815260200190815260200160002060000160039054906101000a900473ffffffffffffffffffffffffffffffffffffffff169050919050565b600b6020528060005260406000206000915090508060000160009054906101000a900460ff16908060000160019054906101000a900460ff16908060000160029054906101000a900460ff16908060000160039054906101000a900473ffffffffffffffffffffffffffffffffffffffff16908060010160009054906101000a900473ffffffffffffffffffffffffffffffffffffffff16908060020160009054906101000a900473ffffffffffffffffffffffffffffffffffffffff16908060030160009054906101000a900473ffffffffffffffffffffffffffffffffffffffff16908060040154908060050154908060120160009054906101000a900460ff1690508a565b60008082600a85020190508091505092915050565b60008173ffffffffffffffffffffffffffffffffffffffff16600b600085815260200190815260200160002060000160039054906101000a900473ffffffffffffffffffffffffffffffffffffffff1673ffffffffffffffffffffffffffffffffffffffff161461208357600b600084815260200190815260200160002060000160039054906101000a900473ffffffffffffffffffffffffffffffffffffffff166120bb565b600b600084815260200190815260200160002060010160009054906101000a900473ffffffffffffffffffffffffffffffffffffffff165b905092915050565b80600b600086815260200190815260200160002060000160026101000a81548160ff021916908360ff16021790555081600b600086815260200190815260200160002060020160006101000a81548173ffffffffffffffffffffffffffffffffffffffff021916908373ffffffffffffffffffffffffffffffffffffffff1602179055508273ffffffffffffffffffffffffffffffffffffffff16600b600086815260200190815260200160002060000160039054906101000a900473ffffffffffffffffffffffffffffffffffffffff1673ffffffffffffffffffffffffffffffffffffffff1614156122345780600b6000868152602001908152602001600020600a01600b600087815260200190815260200160002060050154606481106121e957fe5b602091828204019190066101000a81548160ff021916908360ff160217905550600b60008581526020019081526020016000206005016000815480929190600101919050555061228d565b80600b6000868152602001908152602001600020600e01600b6000878152602001908152602001600020600501546064811061226c57fe5b602091828204019190066101000a81548160ff021916908360ff1602179055505b50505050565b600082826040516020018083805190602001908083835b602083106122cd57805182526020820191506020810190506020830392506122aa565b6001836020036101000a03801982511681845116808217855250505050505090500182805190602001908083835b6020831061231e57805182526020820191506020810190506020830392506122fb565b6001836020036101000a0380198251168184511680821785525050505050509050019250505060405160208183030381529060405280519060200120905092915050565b6040518060600160405280600390602082028038833980820191505090505090565b8280548282559060005260206000209081019282156123c0579160200282015b828111156123bf5782518255916020019190600101906123a4565b5b5090506123cd9190612474565b5090565b828054600181600116156101000203166002900490600052602060002090601f016020900481019282601f1061241257805160ff1916838001178555612440565b82800160010185558215612440579182015b8281111561243f578251825591602001919060010190612424565b5b50905061244d9190612499565b5090565b60405180610c800160405280606490602082028038833980820191505090505090565b61249691905b8082111561249257600081600090555060010161247a565b5090565b90565b6124bb91905b808211156124b757600081600090555060010161249f565b5090565b9056fea165627a7a723058206bc9524bd1bdb03aeb6bf36a0a0b135e9ba859e48b14b62dee0d393334f13cf60029",
  "source": "pragma solidity >=0.4.22 <0.6.0;\n\ncontract Battleship \n{\n  uint8 constant GRID_SIZE = 10;\n  uint8 constant SHIP_CARRIER = 5;\n  uint8 constant SHIP_BATTLESHIP = 4;\n  uint8 constant SHIP_CRUISER = 3;\n  uint8 constant SHIP_SUBMARINE = 3;\n  uint8 constant SHIP_DESTROYER = 2;\n  uint private bidAmount = 1 ether;\n  int8 constant HIT = 1;\n  int8 constant MISS = -1;\n  uint miss = 0;\n  uint hit = 0;\n  uint empty = 0;\n  uint win;\n  uint lost;\n  uint nothin;\n  bytes positions;\n  uint shipp;\n  bytes1 cnt;\n  bytes32 secret_test;//=0x1bd1a2e6d0afcba49b2ce8cd8749126088dcbc0916ca2ac53e363cd5820db3c9;\n  enum GameStatus { OPEN, READY, STARTED, FINISHED, DONE }\n  struct Game {\n    GameStatus status;\n    uint8 gridSize; //board size\n    uint8 targetIndex; //index of the attack this user makes\n    address payable owner; // who created the game\n    address payable challenger; // who joined the already created game\n    address turn; // whose turn\n    address winner; // who's the winner\n    uint funds;// amount required to play\n    uint num; // move number\n    mapping (address => bytes32) secrets; // hashes of board\n    mapping (address => string) ships; // (ocean board)original location of ships , will be stored during reveal\n    mapping (address => int[]) targets; // target board corresponding to a user\n    mapping (address => bool) cheated; // did a particular user cheat\n    uint8[100] moves_owner; // list of moves player1\n    uint8[100] moves_challenger;  // list of moves player2\n    bool exists;\n  }\n  \n  // Game[] public games;\n  mapping (bytes32 => Game) public games;\n\n  // mapping (address => uint[]) private game_list_of_a_player;\n\n  modifier onlyPlayer(bytes32 gameId) {\n    require(msg.sender == games[gameId].owner || msg.sender == games[gameId].challenger); // either player1 or player2 only\n    _;\n  }\n\n  modifier onlyWinner(bytes32 gameId) {\n    require(games[gameId].status == GameStatus.DONE); \n    require(games[gameId].winner == msg.sender); \n    _;\n  }\n\n  modifier myTurn(bytes32 gameId) {\n    require(msg.sender == games[gameId].turn);\n    _;\n  }\n\n  modifier gameOpen(bytes32 gameId) {\n    require(games[gameId].status == GameStatus.OPEN);\n    _;\n  }\n\n  modifier gameReady(bytes32 gameId) {\n    require(games[gameId].status == GameStatus.READY);\n    _;\n  }\n\n  modifier gameStarted(bytes32 gameId) {\n    require(games[gameId].status == GameStatus.STARTED);\n    _;\n  }\n\n  modifier gameFinished(bytes32 gameId) {\n    require(games[gameId].status == GameStatus.FINISHED);\n    _;\n  }\n\n  modifier notRevealed(bytes32 gameId) {\n    require(bytes(games[gameId].ships[msg.sender]).length == 0); // not revealed => not yet stored in ocean board\n    _;\n  }\n\n// function getHash(uint gameId) external view returns(uint)\n//   {\n//     return shipp;\n//   }\n  \n  function getstate0() public view returns(uint)\n  {\n    return lost;\n  }\n  function getstate1() public view returns(uint)\n  {\n    return win;\n  }\n  function getstate2() public view returns(uint)\n  {\n    return nothin;\n  }\n  function getStatus(bytes32 gameId) external view returns(GameStatus)\n  {\n    return games[gameId].status;\n  }\n  function getChallenger(bytes32 gameId) external view returns(address)\n  {\n    return games[gameId].challenger;\n  }\n  function getOwner(bytes32 gameId) external view returns(address)\n  {\n    return games[gameId].owner;\n  }\n  function getWinner(bytes32 gameId) external view returns(address)\n  {\n    return games[gameId].winner;\n  }\n  function getTurn(bytes32 gameId) external view returns(address)\n  {\n    return games[gameId].turn;\n  }\n  function getTargetIndex(bytes32 gameId) external view returns(uint8)\n  {\n    return games[gameId].targetIndex;\n  }\n  // function getgame_list_of_a_player(address player) external view returns(uint[] memory)\n  // {\n  //   return game_list_of_a_player[player];\n  // }\n\n  function getGameTarget(bytes32 gameId, address player) external view returns(int[] memory)\n  {\n    return games[gameId].targets[player];\n  }\n\n  function getGameOcean(bytes32 gameId, address player) external view returns(int[] memory)\n  {\n    address opponent = getOpponent(gameId, player);\n\n    return games[gameId].targets[opponent];\n  }\n\n  \n  // function createGame(bytes32 gameId, uint8 gridSize, bytes32 secret) public payable\n  // {\n  //   require (msg.value == bidAmount,\"bid 1 ether\");\n  //   // uint gameId = games.length;\n  //   // games.length++;\n  //   games[gameId].num = 0;\n  //   games[gameId].status = GameStatus.OPEN; // created\n  //   games[gameId].gridSize = gridSize;\n  //   games[gameId].owner = msg.sender;\n  //   games[gameId].turn = msg.sender; // set player1's turn\n  //   games[gameId].secrets[msg.sender] = secret;\n  //   games[gameId].targets[msg.sender] = new int[](gridSize ** 2); // make new target board for player1\n  //   games[gameId].funds = msg.value;\n\n  //   // game_list_of_a_player[msg.sender].push(gameId);\n\n  // }\n\n  function joinGame(bytes32 gameId, bytes32 secret) public payable gameOpen(gameId)\n  {\n    require (msg.value == bidAmount,\"bid 1 ether\"); \n    // require(games[gameId].owner != msg.sender ,\"owner cannot join again, he already has!\"); \n    if(!games[gameId].exists)\n    {\n        games[gameId].num = 0;\n        games[gameId].status = GameStatus.OPEN; // created\n        games[gameId].gridSize = 10;\n        games[gameId].owner = msg.sender;\n        games[gameId].turn = msg.sender; // set player1's turn\n        games[gameId].secrets[msg.sender] = secret;\n        games[gameId].targets[msg.sender] = new int[](100); // make new target board for player1\n        games[gameId].funds = msg.value;  \n        games[gameId].exists = true;\n    }\n    else\n    {\n        require(games[gameId].funds == msg.value,\"insufficient funds\");\n\n        games[gameId].status = GameStatus.READY;\n        games[gameId].challenger = msg.sender; // player2 is the challenger\n        games[gameId].secrets[msg.sender] = secret;\n        games[gameId].targets[msg.sender] = new int[](games[gameId].gridSize ** 2); // make new target board for player2\n        games[gameId].funds += msg.value;\n    }\n    // game_list_of_a_player[msg.sender].push(gameId);\n  }\n\nfunction convert_to_1D(uint8 x, uint8 y) private pure returns(uint8)\n{\n    uint8 ans = (x * 10) + y;\n    return(ans);\n}\n  function attack(bytes32 gameId, uint8 x,uint8 y) public payable gameReady(gameId) myTurn(gameId)\n  {\n      uint8 index = convert_to_1D(x,y);\n    address opponent = getOpponent(gameId, msg.sender);\n\n    games[gameId].status = GameStatus.STARTED; // first attack happened\n\n    _attack(gameId, msg.sender, opponent, index);\n  }\n\n  function counterAttack(bytes32 gameId, uint8 x, uint8 y, bool hitt) public payable gameStarted(gameId) myTurn(gameId)\n  {\n    uint8 index = convert_to_1D(x,y);  \n    address payable opponent = getOpponent(gameId, msg.sender);\n    uint8 targetIndex = games[gameId].targetIndex;\n\n    games[gameId].targets[opponent][targetIndex] = hitt ? HIT : MISS;\n\n    _attack(gameId, msg.sender, opponent, index);\n\n    uint[3] memory state = getGridState(games[gameId].targets[opponent]);\n    uint fleet = 17;//getFleetSize(games[gameId].gridSize);\n    lost = state[0];\n    win = state[1];\n    nothin = state[2];\n    bool isWon = state[1] >= fleet;\n    bool isVoid = (fleet - state[1]) > state[2];\n\n    if (isWon || isVoid) {\n      games[gameId].status = GameStatus.FINISHED;\n      games[gameId].winner = opponent;\n      //opponent.transfer(games[gameId].funds);\n\n    }\n  }\n\n  function reveal(bytes32 gameId, string memory salt, string memory ship, address player) public gameFinished(gameId) onlyPlayer(gameId) notRevealed(gameId)\n  {\n    require(getSecret(salt, ship) == games[gameId].secrets[player],\"you cheated!\");\n    games[gameId].ships[player] = ship;\n  }\n\n  function withdraw(bytes32 gameId) public onlyWinner(gameId) {\n    // uint amount = games[gameId].funds;\n    // games[gameId].funds = 0;\n    msg.sender.transfer(bidAmount);\n  }\n\n  function _attack(bytes32 gameId, address attacker, address defender, uint8 index) internal {\n    games[gameId].targetIndex = index;\n    games[gameId].turn = defender; // Toggle turn\n    if(games[gameId].owner == attacker)\n    {\n      games[gameId].moves_owner[games[gameId].num]=index;\n      games[gameId].num ++;\n    }\n    else\n    {\n      games[gameId].moves_challenger[games[gameId].num]=index;\n    }\n\n  }\n\n\n  function getOpponent(bytes32 gameId, address player) internal view returns(address payable) {\n    return games[gameId].owner == player ? games[gameId].challenger : games[gameId].owner;\n  }\n\n  function getSecret(string memory ships, string memory salt) private pure returns(bytes32) {\n    return keccak256(abi.encodePacked(ships, salt));\n  }\n\n\n  function getGridState(int[] memory grid)public payable returns(uint[3] memory) {\n    hit = 0;\n    miss = 0;\n    empty = 0;\n    for (uint i = 0; i < grid.length; i++) {\n      if (grid[i] == MISS) {\n        miss++;\n      }\n\n      if (grid[i] == HIT) {\n        hit++;\n      }\n\n      if (grid[i] == 0) {\n        empty++;\n      }\n    }\n\n    return [miss, hit, empty];\n  }\n\n  function getMoveList(address player,bytes32 gameId) public view returns(uint8[100] memory)\n  {\n    if(games[gameId].owner == player)\n      return games[gameId].moves_owner;\n    else\n      return games[gameId].moves_challenger;\n  }\n  // function getFleetSize(uint8 gridSize) internal pure returns(uint) {\n  //     // gridSize=10;\n  //   return SHIP_CARRIER + SHIP_BATTLESHIP + SHIP_CRUISER + SHIP_SUBMARINE + SHIP_DESTROYER;\n  // }\n\n \n}\n",
  "sourcePath": "/home/tarun/Documents/Education/Sem_3/Assignments/Blockchain/battleship-blockchain-dapp/contracts/Battleships.sol",
  "compiler": {
    "name": "solc",
    "version": "0.5.8+commit.23d335f2.Emscripten.clang"
  },
  "schemaVersion": "3.0.16",
  "updatedAt": "2019-11-28T08:59:20.150Z",
  "devdoc": {
    "methods": {}
  },
  "userdoc": {
    "methods": {}
  }
}