{
  "contractName": "Battleship",
  "abi": [
    {
      "constant": true,
      "inputs": [
        {
          "name": "",
          "type": "bytes32"
        }
      ],
      "name": "games",
      "outputs": [
        {
          "name": "status",
          "type": "uint8"
        },
        {
          "name": "player1",
          "type": "address"
        },
        {
          "name": "player2",
          "type": "address"
        },
        {
          "name": "attacker",
          "type": "address"
        },
        {
          "name": "defender",
          "type": "address"
        },
        {
          "name": "winner",
          "type": "address"
        },
        {
          "name": "bounty",
          "type": "uint256"
        },
        {
          "name": "currentTarget",
          "type": "int8"
        }
      ],
      "payable": false,
      "stateMutability": "view",
      "type": "function"
    },
    {
      "inputs": [],
      "payable": false,
      "stateMutability": "nonpayable",
      "type": "constructor"
    },
    {
      "constant": false,
      "inputs": [
        {
          "name": "gameId",
          "type": "bytes32"
        },
        {
          "name": "boardHash",
          "type": "bytes32"
        }
      ],
      "name": "joinGame",
      "outputs": [],
      "payable": true,
      "stateMutability": "payable",
      "type": "function"
    },
    {
      "constant": false,
      "inputs": [
        {
          "name": "gameId",
          "type": "bytes32"
        },
        {
          "name": "x",
          "type": "uint8"
        },
        {
          "name": "y",
          "type": "uint8"
        }
      ],
      "name": "attack",
      "outputs": [],
      "payable": false,
      "stateMutability": "nonpayable",
      "type": "function"
    },
    {
      "constant": false,
      "inputs": [
        {
          "name": "gameId",
          "type": "bytes32"
        },
        {
          "name": "hit",
          "type": "bool"
        }
      ],
      "name": "announceStatus",
      "outputs": [],
      "payable": false,
      "stateMutability": "nonpayable",
      "type": "function"
    },
    {
      "constant": false,
      "inputs": [
        {
          "name": "gameId",
          "type": "bytes32"
        }
      ],
      "name": "finishGame",
      "outputs": [],
      "payable": false,
      "stateMutability": "nonpayable",
      "type": "function"
    },
    {
      "constant": false,
      "inputs": [
        {
          "name": "gameId",
          "type": "bytes32"
        },
        {
          "name": "nonce",
          "type": "string"
        },
        {
          "name": "boardString",
          "type": "string"
        }
      ],
      "name": "reveal",
      "outputs": [],
      "payable": false,
      "stateMutability": "nonpayable",
      "type": "function"
    },
    {
      "constant": false,
      "inputs": [
        {
          "name": "gameId",
          "type": "bytes32"
        }
      ],
      "name": "withdraw",
      "outputs": [],
      "payable": false,
      "stateMutability": "nonpayable",
      "type": "function"
    },
    {
      "constant": true,
      "inputs": [
        {
          "name": "gameId",
          "type": "bytes32"
        }
      ],
      "name": "revealWinner",
      "outputs": [
        {
          "name": "",
          "type": "address"
        }
      ],
      "payable": false,
      "stateMutability": "view",
      "type": "function"
    },
    {
      "constant": true,
      "inputs": [
        {
          "name": "gameId",
          "type": "bytes32"
        }
      ],
      "name": "playerCheated",
      "outputs": [
        {
          "name": "",
          "type": "bool"
        }
      ],
      "payable": false,
      "stateMutability": "view",
      "type": "function"
    }
  ],
  "bytecode": "0x6080604052655af3107a400060005534801561001a57600080fd5b5033600160006101000a81548173ffffffffffffffffffffffffffffffffffffffff021916908373ffffffffffffffffffffffffffffffffffffffff160217905550612af88061006b6000396000f3fe6080604052600436106100865760003560e01c80639df3a2e8116100595780639df3a2e8146102a2578063a9a86f4d146102f5578063c513296114610370578063f579f882146103c5578063fe0529f51461053557610086565b8063213267681461008b5780633e92eac5146100c65780634df102671461022f5780638e19899e14610267575b600080fd5b34801561009757600080fd5b506100c4600480360360208110156100ae57600080fd5b810190808035906020019092919050505061057c565b005b3480156100d257600080fd5b5061022d600480360360608110156100e957600080fd5b81019080803590602001909291908035906020019064010000000081111561011057600080fd5b82018360208201111561012257600080fd5b8035906020019184600183028401116401000000008311171561014457600080fd5b91908080601f016020809104026020016040519081016040528093929190818152602001838380828437600081840152601f19601f820116905080830192505050505050509192919290803590602001906401000000008111156101a757600080fd5b8201836020820111156101b957600080fd5b803590602001918460018302840111640100000000831117156101db57600080fd5b91908080601f016020809104026020016040519081016040528093929190818152602001838380828437600081840152601f19601f8201169050808301925050505050505091929192905050506106fb565b005b6102656004803603604081101561024557600080fd5b810190808035906020019092919080359060200190929190505050610cba565b005b34801561027357600080fd5b506102a06004803603602081101561028a57600080fd5b81019080803590602001909291905050506111fa565b005b3480156102ae57600080fd5b506102db600480360360208110156102c557600080fd5b8101908080359060200190929190505050611bae565b604051808215151515815260200191505060405180910390f35b34801561030157600080fd5b5061032e6004803603602081101561031857600080fd5b8101908080359060200190929190505050611dc2565b604051808273ffffffffffffffffffffffffffffffffffffffff1673ffffffffffffffffffffffffffffffffffffffff16815260200191505060405180910390f35b34801561037c57600080fd5b506103c36004803603606081101561039357600080fd5b8101908080359060200190929190803560ff169060200190929190803560ff169060200190929190505050611ff7565b005b3480156103d157600080fd5b506103fe600480360360208110156103e857600080fd5b81019080803590602001909291905050506123a9565b6040518089600381111561040e57fe5b60ff1681526020018873ffffffffffffffffffffffffffffffffffffffff1673ffffffffffffffffffffffffffffffffffffffff1681526020018773ffffffffffffffffffffffffffffffffffffffff1673ffffffffffffffffffffffffffffffffffffffff1681526020018673ffffffffffffffffffffffffffffffffffffffff1673ffffffffffffffffffffffffffffffffffffffff1681526020018573ffffffffffffffffffffffffffffffffffffffff1673ffffffffffffffffffffffffffffffffffffffff1681526020018473ffffffffffffffffffffffffffffffffffffffff1673ffffffffffffffffffffffffffffffffffffffff1681526020018381526020018260000b60000b81526020019850505050505050505060405180910390f35b34801561054157600080fd5b5061057a6004803603604081101561055857600080fd5b81019080803590602001909291908035151590602001909291905050506124ab565b005b803373ffffffffffffffffffffffffffffffffffffffff166002600083815260200190815260200160002060000160019054906101000a900473ffffffffffffffffffffffffffffffffffffffff1673ffffffffffffffffffffffffffffffffffffffff16148061064e57503373ffffffffffffffffffffffffffffffffffffffff166002600083815260200190815260200160002060010160009054906101000a900473ffffffffffffffffffffffffffffffffffffffff1673ffffffffffffffffffffffffffffffffffffffff16145b6106c0576040517f08c379a00000000000000000000000000000000000000000000000000000000081526004018080602001828103825260208152602001807f4f6e6c79207265676973746572656420706c61796572732063616e20706c617981525060200191505060405180910390fd5b600280600084815260200190815260200160002060000160006101000a81548160ff021916908360038111156106f257fe5b02179055505050565b826002600381111561070957fe5b6002600083815260200190815260200160002060000160009054906101000a900460ff16600381111561073857fe5b146107ab576040517f08c379a00000000000000000000000000000000000000000000000000000000081526004018080602001828103825260198152602001807f47616d6520686173206e6f742066696e6973686564207965740000000000000081525060200191505060405180910390fd5b833373ffffffffffffffffffffffffffffffffffffffff166002600083815260200190815260200160002060000160019054906101000a900473ffffffffffffffffffffffffffffffffffffffff1673ffffffffffffffffffffffffffffffffffffffff16148061087d57503373ffffffffffffffffffffffffffffffffffffffff166002600083815260200190815260200160002060010160009054906101000a900473ffffffffffffffffffffffffffffffffffffffff1673ffffffffffffffffffffffffffffffffffffffff16145b6108ef576040517f08c379a00000000000000000000000000000000000000000000000000000000081526004018080602001828103825260208152602001807f4f6e6c79207265676973746572656420706c61796572732063616e20706c617981525060200191505060405180910390fd5b60016002600087815260200190815260200160002060080160003373ffffffffffffffffffffffffffffffffffffffff1673ffffffffffffffffffffffffffffffffffffffff16815260200190815260200160002060006101000a81548160ff021916908315150217905550600084846040516020018083805190602001908083835b602083106109955780518252602082019150602081019050602083039250610972565b6001836020036101000a03801982511681845116808217855250505050505090500182805190602001908083835b602083106109e657805182526020820191506020810190506020830392506109c3565b6001836020036101000a038019825116818451168082178552505050505050905001925050506040516020818303038152906040528051906020012090506002600087815260200190815260200160002060060160003373ffffffffffffffffffffffffffffffffffffffff1673ffffffffffffffffffffffffffffffffffffffff168152602001908152602001600020548114610af05760016002600088815260200190815260200160002060090160003373ffffffffffffffffffffffffffffffffffffffff1673ffffffffffffffffffffffffffffffffffffffff16815260200190815260200160002060006101000a81548160ff02191690831515021790555050610cb3565b606084905060008090505b60648160ff161015610caf577fffffffffffffffffffffffffffffffffffffffffffffffffffffffffffffffff600260008a815260200190815260200160002060070160003373ffffffffffffffffffffffffffffffffffffffff1673ffffffffffffffffffffffffffffffffffffffff1681526020019081526020016000208260ff1660648110610b8957fe5b602091828204019190069054906101000a900460000b60000b148015610c2c57507f30000000000000000000000000000000000000000000000000000000000000007effffffffffffffffffffffffffffffffffffffffffffffffffffffffffffff1916828260ff1681518110610bfc57fe5b602001015160f81c60f81b7effffffffffffffffffffffffffffffffffffffffffffffffffffffffffffff191614155b15610ca2576001600260008a815260200190815260200160002060090160003373ffffffffffffffffffffffffffffffffffffffff1673ffffffffffffffffffffffffffffffffffffffff16815260200190815260200160002060006101000a81548160ff021916908315150217905550610caf565b8080600101915050610afb565b5050505b5050505050565b8160006003811115610cc857fe5b6002600083815260200190815260200160002060000160009054906101000a900460ff166003811115610cf757fe5b14610d6a576040517f08c379a00000000000000000000000000000000000000000000000000000000081526004018080602001828103825260108152602001807f47616d65206973206e6f74206f70656e0000000000000000000000000000000081525060200191505060405180910390fd5b823373ffffffffffffffffffffffffffffffffffffffff166002600083815260200190815260200160002060000160019054906101000a900473ffffffffffffffffffffffffffffffffffffffff1673ffffffffffffffffffffffffffffffffffffffff1614158015610e3f57503373ffffffffffffffffffffffffffffffffffffffff166002600083815260200190815260200160002060010160009054906101000a900473ffffffffffffffffffffffffffffffffffffffff1673ffffffffffffffffffffffffffffffffffffffff1614155b610eb1576040517f08c379a00000000000000000000000000000000000000000000000000000000081526004018080602001828103825260198152602001807f506c6179657220616c726561647920726567697374657265640000000000000081525060200191505060405180910390fd5b600054341015610f29576040517f08c379a00000000000000000000000000000000000000000000000000000000081526004018080602001828103825260188152602001807f6269642061746c6561737420302e30303031206574686572000000000000000081525060200191505060405180910390fd5b600073ffffffffffffffffffffffffffffffffffffffff166002600086815260200190815260200160002060000160019054906101000a900473ffffffffffffffffffffffffffffffffffffffff1673ffffffffffffffffffffffffffffffffffffffff16141561104357336002600086815260200190815260200160002060000160016101000a81548173ffffffffffffffffffffffffffffffffffffffff021916908373ffffffffffffffffffffffffffffffffffffffff160217905550336002600086815260200190815260200160002060020160006101000a81548173ffffffffffffffffffffffffffffffffffffffff021916908373ffffffffffffffffffffffffffffffffffffffff160217905550611126565b336002600086815260200190815260200160002060010160006101000a81548173ffffffffffffffffffffffffffffffffffffffff021916908373ffffffffffffffffffffffffffffffffffffffff160217905550336002600086815260200190815260200160002060030160006101000a81548173ffffffffffffffffffffffffffffffffffffffff021916908373ffffffffffffffffffffffffffffffffffffffff16021790555060016002600086815260200190815260200160002060000160006101000a81548160ff0219169083600381111561112057fe5b02179055505b826002600086815260200190815260200160002060060160003373ffffffffffffffffffffffffffffffffffffffff1673ffffffffffffffffffffffffffffffffffffffff168152602001908152602001600020819055503460026000868152602001908152602001600020600501600082825401925050819055507fffffffffffffffffffffffffffffffffffffffffffffffffffffffffffffffff60026000868152602001908152602001600020600a0160006101000a81548160ff021916908360000b60ff16021790555050505050565b806002600082815260200190815260200160002060080160006002600084815260200190815260200160002060000160019054906101000a900473ffffffffffffffffffffffffffffffffffffffff1673ffffffffffffffffffffffffffffffffffffffff1673ffffffffffffffffffffffffffffffffffffffff16815260200190815260200160002060009054906101000a900460ff16801561133157506002600082815260200190815260200160002060080160006002600084815260200190815260200160002060010160009054906101000a900473ffffffffffffffffffffffffffffffffffffffff1673ffffffffffffffffffffffffffffffffffffffff1673ffffffffffffffffffffffffffffffffffffffff16815260200190815260200160002060009054906101000a900460ff165b6113a3576040517f08c379a000000000000000000000000000000000000000000000000000000000815260040180806020018281038252600f8152602001807f52657665616c206e6f7420646f6e65000000000000000000000000000000000081525060200191505060405180910390fd5b6003808111156113af57fe5b6002600084815260200190815260200160002060000160009054906101000a900460ff1660038111156113de57fe5b14156113e957611baa565b6002600083815260200190815260200160002060090160006002600085815260200190815260200160002060000160019054906101000a900473ffffffffffffffffffffffffffffffffffffffff1673ffffffffffffffffffffffffffffffffffffffff1673ffffffffffffffffffffffffffffffffffffffff16815260200190815260200160002060009054906101000a900460ff16801561152057506002600083815260200190815260200160002060090160006002600085815260200190815260200160002060010160009054906101000a900473ffffffffffffffffffffffffffffffffffffffff1673ffffffffffffffffffffffffffffffffffffffff1673ffffffffffffffffffffffffffffffffffffffff16815260200190815260200160002060009054906101000a900460ff16155b15611648576002600083815260200190815260200160002060010160009054906101000a900473ffffffffffffffffffffffffffffffffffffffff1673ffffffffffffffffffffffffffffffffffffffff166108fc60026000858152602001908152602001600020600501549081150290604051600060405180830381858888f193505050501580156115b7573d6000803e3d6000fd5b506002600083815260200190815260200160002060010160009054906101000a900473ffffffffffffffffffffffffffffffffffffffff166002600084815260200190815260200160002060040160006101000a81548173ffffffffffffffffffffffffffffffffffffffff021916908373ffffffffffffffffffffffffffffffffffffffff160217905550611b71565b6002600083815260200190815260200160002060090160006002600085815260200190815260200160002060010160009054906101000a900473ffffffffffffffffffffffffffffffffffffffff1673ffffffffffffffffffffffffffffffffffffffff1673ffffffffffffffffffffffffffffffffffffffff16815260200190815260200160002060009054906101000a900460ff16801561177f57506002600083815260200190815260200160002060090160006002600085815260200190815260200160002060000160019054906101000a900473ffffffffffffffffffffffffffffffffffffffff1673ffffffffffffffffffffffffffffffffffffffff1673ffffffffffffffffffffffffffffffffffffffff16815260200190815260200160002060009054906101000a900460ff16155b156118a7576002600083815260200190815260200160002060000160019054906101000a900473ffffffffffffffffffffffffffffffffffffffff1673ffffffffffffffffffffffffffffffffffffffff166108fc60026000858152602001908152602001600020600501549081150290604051600060405180830381858888f19350505050158015611816573d6000803e3d6000fd5b506002600083815260200190815260200160002060000160019054906101000a900473ffffffffffffffffffffffffffffffffffffffff166002600084815260200190815260200160002060040160006101000a81548173ffffffffffffffffffffffffffffffffffffffff021916908373ffffffffffffffffffffffffffffffffffffffff160217905550611b70565b6002600083815260200190815260200160002060090160006002600085815260200190815260200160002060000160019054906101000a900473ffffffffffffffffffffffffffffffffffffffff1673ffffffffffffffffffffffffffffffffffffffff1673ffffffffffffffffffffffffffffffffffffffff16815260200190815260200160002060009054906101000a900460ff1680156119dd57506002600083815260200190815260200160002060090160006002600085815260200190815260200160002060010160009054906101000a900473ffffffffffffffffffffffffffffffffffffffff1673ffffffffffffffffffffffffffffffffffffffff1673ffffffffffffffffffffffffffffffffffffffff16815260200190815260200160002060009054906101000a900460ff165b15611abc57600160009054906101000a900473ffffffffffffffffffffffffffffffffffffffff1673ffffffffffffffffffffffffffffffffffffffff166108fc60026000858152602001908152602001600020600501549081150290604051600060405180830381858888f19350505050158015611a60573d6000803e3d6000fd5b5060006002600084815260200190815260200160002060040160006101000a81548173ffffffffffffffffffffffffffffffffffffffff021916908373ffffffffffffffffffffffffffffffffffffffff160217905550611b6f565b3373ffffffffffffffffffffffffffffffffffffffff166108fc60026000858152602001908152602001600020600501549081150290604051600060405180830381858888f19350505050158015611b18573d6000803e3d6000fd5b50336002600084815260200190815260200160002060040160006101000a81548173ffffffffffffffffffffffffffffffffffffffff021916908373ffffffffffffffffffffffffffffffffffffffff1602179055505b5b5b60036002600084815260200190815260200160002060000160006101000a81548160ff02191690836003811115611ba457fe5b02179055505b5050565b6000816002600082815260200190815260200160002060080160006002600084815260200190815260200160002060000160019054906101000a900473ffffffffffffffffffffffffffffffffffffffff1673ffffffffffffffffffffffffffffffffffffffff1673ffffffffffffffffffffffffffffffffffffffff16815260200190815260200160002060009054906101000a900460ff168015611ce757506002600082815260200190815260200160002060080160006002600084815260200190815260200160002060010160009054906101000a900473ffffffffffffffffffffffffffffffffffffffff1673ffffffffffffffffffffffffffffffffffffffff1673ffffffffffffffffffffffffffffffffffffffff16815260200190815260200160002060009054906101000a900460ff165b611d59576040517f08c379a000000000000000000000000000000000000000000000000000000000815260040180806020018281038252600f8152602001807f52657665616c206e6f7420646f6e65000000000000000000000000000000000081525060200191505060405180910390fd5b6002600084815260200190815260200160002060090160003373ffffffffffffffffffffffffffffffffffffffff1673ffffffffffffffffffffffffffffffffffffffff16815260200190815260200160002060009054906101000a900460ff16915050919050565b6000816002600082815260200190815260200160002060080160006002600084815260200190815260200160002060000160019054906101000a900473ffffffffffffffffffffffffffffffffffffffff1673ffffffffffffffffffffffffffffffffffffffff1673ffffffffffffffffffffffffffffffffffffffff16815260200190815260200160002060009054906101000a900460ff168015611efb57506002600082815260200190815260200160002060080160006002600084815260200190815260200160002060010160009054906101000a900473ffffffffffffffffffffffffffffffffffffffff1673ffffffffffffffffffffffffffffffffffffffff1673ffffffffffffffffffffffffffffffffffffffff16815260200190815260200160002060009054906101000a900460ff165b611f6d576040517f08c379a000000000000000000000000000000000000000000000000000000000815260040180806020018281038252600f8152602001807f52657665616c206e6f7420646f6e65000000000000000000000000000000000081525060200191505060405180910390fd5b600380811115611f7957fe5b6002600085815260200190815260200160002060000160009054906101000a900460ff166003811115611fa857fe5b1415611fec576002600084815260200190815260200160002060040160009054906101000a900473ffffffffffffffffffffffffffffffffffffffff169150611ff1565b600091505b50919050565b826001600381111561200557fe5b6002600083815260200190815260200160002060000160009054906101000a900460ff16600381111561203457fe5b146120a7576040517f08c379a00000000000000000000000000000000000000000000000000000000081526004018080602001828103825260188152602001807f47616d6520686173206e6f74207374617274656420796574000000000000000081525060200191505060405180910390fd5b833373ffffffffffffffffffffffffffffffffffffffff166002600083815260200190815260200160002060000160019054906101000a900473ffffffffffffffffffffffffffffffffffffffff1673ffffffffffffffffffffffffffffffffffffffff16148061217957503373ffffffffffffffffffffffffffffffffffffffff166002600083815260200190815260200160002060010160009054906101000a900473ffffffffffffffffffffffffffffffffffffffff1673ffffffffffffffffffffffffffffffffffffffff16145b6121eb576040517f08c379a00000000000000000000000000000000000000000000000000000000081526004018080602001828103825260208152602001807f4f6e6c79207265676973746572656420706c61796572732063616e20706c617981525060200191505060405180910390fd5b843373ffffffffffffffffffffffffffffffffffffffff166002600083815260200190815260200160002060020160009054906101000a900473ffffffffffffffffffffffffffffffffffffffff1673ffffffffffffffffffffffffffffffffffffffff16146122c3576040517f08c379a000000000000000000000000000000000000000000000000000000000815260040180806020018281038252601e8152602001807f506c617965722063616e6e6f742061747461636b2074686973207475726e000081525060200191505060405180910390fd5b85600060026000838152602001908152602001600020600a0160009054906101000a900460000b60000b12612360576040517f08c379a000000000000000000000000000000000000000000000000000000000815260040180806020018281038252601e8152602001807f506c617965722063616e6e6f7420646566656e642074686973207475726e000081525060200191505060405180910390fd5b600085600a88020160ff16905080600260008a8152602001908152602001600020600a0160006101000a81548160ff021916908360000b60ff1602179055505050505050505050565b60026020528060005260406000206000915090508060000160009054906101000a900460ff16908060000160019054906101000a900473ffffffffffffffffffffffffffffffffffffffff16908060010160009054906101000a900473ffffffffffffffffffffffffffffffffffffffff16908060020160009054906101000a900473ffffffffffffffffffffffffffffffffffffffff16908060030160009054906101000a900473ffffffffffffffffffffffffffffffffffffffff16908060040160009054906101000a900473ffffffffffffffffffffffffffffffffffffffff169080600501549080600a0160009054906101000a900460000b905088565b81600160038111156124b957fe5b6002600083815260200190815260200160002060000160009054906101000a900460ff1660038111156124e857fe5b1461255b576040517f08c379a00000000000000000000000000000000000000000000000000000000081526004018080602001828103825260188152602001807f47616d6520686173206e6f74207374617274656420796574000000000000000081525060200191505060405180910390fd5b823373ffffffffffffffffffffffffffffffffffffffff166002600083815260200190815260200160002060000160019054906101000a900473ffffffffffffffffffffffffffffffffffffffff1673ffffffffffffffffffffffffffffffffffffffff16148061262d57503373ffffffffffffffffffffffffffffffffffffffff166002600083815260200190815260200160002060010160009054906101000a900473ffffffffffffffffffffffffffffffffffffffff1673ffffffffffffffffffffffffffffffffffffffff16145b61269f576040517f08c379a00000000000000000000000000000000000000000000000000000000081526004018080602001828103825260208152602001807f4f6e6c79207265676973746572656420706c61796572732063616e20706c617981525060200191505060405180910390fd5b833373ffffffffffffffffffffffffffffffffffffffff166002600083815260200190815260200160002060030160009054906101000a900473ffffffffffffffffffffffffffffffffffffffff1673ffffffffffffffffffffffffffffffffffffffff1614612777576040517f08c379a000000000000000000000000000000000000000000000000000000000815260040180806020018281038252601e8152602001807f506c617965722063616e6e6f7420646566656e642074686973207475726e000081525060200191505060405180910390fd5b84600060026000838152602001908152602001600020600a0160009054906101000a900460000b60000b1215612815576040517f08c379a000000000000000000000000000000000000000000000000000000000815260040180806020018281038252601e8152602001807f506c617965722063616e6e6f742061747461636b2074686973207475726e000081525060200191505060405180910390fd5b84156128c95760016002600088815260200190815260200160002060070160003373ffffffffffffffffffffffffffffffffffffffff1673ffffffffffffffffffffffffffffffffffffffff16815260200190815260200160002060026000898152602001908152602001600020600a0160009054906101000a900460000b60ff16606481106128a157fe5b602091828204019190066101000a81548160ff021916908360000b60ff160217905550612992565b7fffffffffffffffffffffffffffffffffffffffffffffffffffffffffffffffff6002600088815260200190815260200160002060070160003373ffffffffffffffffffffffffffffffffffffffff1673ffffffffffffffffffffffffffffffffffffffff16815260200190815260200160002060026000898152602001908152602001600020600a0160009054906101000a900460000b60ff166064811061296e57fe5b602091828204019190066101000a81548160ff021916908360000b60ff1602179055505b7fffffffffffffffffffffffffffffffffffffffffffffffffffffffffffffffff60026000888152602001908152602001600020600a0160006101000a81548160ff021916908360000b60ff1602179055506002600087815260200190815260200160002060020160009054906101000a900473ffffffffffffffffffffffffffffffffffffffff166002600088815260200190815260200160002060030160006101000a81548173ffffffffffffffffffffffffffffffffffffffff021916908373ffffffffffffffffffffffffffffffffffffffff160217905550336002600088815260200190815260200160002060020160006101000a81548173ffffffffffffffffffffffffffffffffffffffff021916908373ffffffffffffffffffffffffffffffffffffffff16021790555050505050505056fea165627a7a72305820fbb111a46d131ee8a35da81b86dd0b0521e4a597549e7d9c8a33dd6df03eefa20029",
  "source": "pragma solidity >=0.4.22 <0.6.0;\n\ncontract Battleship\n{\n    enum GameStatus { OPEN, STARTED, FINISHED, CLOSED }\n    uint private bidAmount = 0.0001 ether;\n    address payable owner;\n    struct Game {\n        GameStatus status;\n        address payable player1;\n        address payable player2;\n        address attacker;\n        address defender;\n        address winner;\n        uint bounty;\n        mapping(address => bytes32) player_hashes;\n        mapping(address => int8[100]) player_board;\n        mapping(address => bool) player_revealed;\n        mapping(address => bool) player_cheated;\n        int8 currentTarget;\n    }\n    mapping (bytes32 => Game) public games;\n\n    constructor () public\n    {\n        owner = msg.sender;\n    }\n    modifier gameOpen(bytes32 gameId)\n    {\n        require(games[gameId].status == GameStatus.OPEN, \"Game is not open\");\n        _;\n    }\n\n    modifier gameStarted(bytes32 gameId)\n    {\n        require(games[gameId].status == GameStatus.STARTED, \"Game has not started yet\");\n        _;\n    }\n\n    modifier gameFinished(bytes32 gameId)\n    {\n        require(games[gameId].status == GameStatus.FINISHED, \"Game has not finished yet\");\n        _;\n    }\n\n    modifier notRegistered(bytes32 gameId)\n    {\n        require(games[gameId].player1 != msg.sender && games[gameId].player2 != msg.sender, \"Player already registered\");\n        _;\n    }\n\n    modifier onlyPlayer(bytes32 gameId)\n    {\n        require(games[gameId].player1 == msg.sender || games[gameId].player2 == msg.sender, \"Only registered players can play\");\n        _;\n    }\n\n    modifier playerIsAttacker(bytes32 gameId)\n    {\n        require(games[gameId].attacker == msg.sender, \"Player cannot attack this turn\");\n        _;\n    }\n\n    modifier playerIsDefender(bytes32 gameId)\n    {\n        require(games[gameId].defender == msg.sender, \"Player cannot defend this turn\");\n        _;\n    }\n\n    modifier attacked(bytes32 gameId)\n    {\n        require(games[gameId].currentTarget >= 0, \"Player cannot attack this turn\");\n        _;\n    }\n\n    modifier defended(bytes32 gameId)\n    {\n        require(games[gameId].currentTarget < 0, \"Player cannot defend this turn\");\n        _;\n    }\n\n    modifier bothPlayersRevealed(bytes32 gameId)\n    {\n        require(games[gameId].player_revealed[games[gameId].player1] && games[gameId].player_revealed[games[gameId].player2], \"Reveal not done\");\n        _;\n    }\n\n    function joinGame(bytes32 gameId, bytes32 boardHash) public payable gameOpen(gameId) notRegistered(gameId)\n    {\n        require (msg.value >= bidAmount,\"bid atleast 0.0001 ether\");\n        if(games[gameId].player1 == address(0))\n        {\n            games[gameId].player1 = msg.sender;\n            games[gameId].attacker = msg.sender;\n        }\n        else\n        {\n            games[gameId].player2 = msg.sender;\n            games[gameId].defender = msg.sender;\n            games[gameId].status = GameStatus.STARTED;\n        }\n        games[gameId].player_hashes[msg.sender] = boardHash;\n        games[gameId].bounty += msg.value;\n        games[gameId].currentTarget = -1;\n    }\n\n    function attack(bytes32 gameId, uint8 x, uint8 y) public gameStarted(gameId) onlyPlayer(gameId) playerIsAttacker(gameId) defended(gameId)\n    {\n        uint index = (x*10)+y;\n        games[gameId].currentTarget = int8(index);\n    }\n\n    function announceStatus(bytes32 gameId, bool hit) public gameStarted(gameId) onlyPlayer(gameId) playerIsDefender(gameId) attacked(gameId)\n    {\n        if(hit)\n        {\n            games[gameId].player_board[msg.sender][uint8(games[gameId].currentTarget)] = 1;\n        }\n        else\n        {\n            games[gameId].player_board[msg.sender][uint8(games[gameId].currentTarget)] = -1;\n        }\n        games[gameId].currentTarget = -1;\n        games[gameId].defender = games[gameId].attacker;\n        games[gameId].attacker = msg.sender;\n    }\n\n    function finishGame(bytes32 gameId) public onlyPlayer(gameId)\n    {\n        games[gameId].status = GameStatus.FINISHED;\n    }\n\n    function reveal(bytes32 gameId, string memory nonce, string memory boardString) public gameFinished(gameId) onlyPlayer(gameId)\n    {\n        games[gameId].player_revealed[msg.sender] = true;\n        bytes32 boardHash = keccak256(abi.encodePacked(nonce, boardString));\n        if(boardHash != games[gameId].player_hashes[msg.sender])\n        {\n          games[gameId].player_cheated[msg.sender] = true;\n          return;\n        }\n        bytes memory boardBytes = bytes(boardString);\n        for(uint8 i = 0; i<100; i++)\n        {\n            if(games[gameId].player_board[msg.sender][i] == -1 && boardBytes[i] != bytes1('0'))\n            {\n              games[gameId].player_cheated[msg.sender] = true;\n              break;\n            }\n        }\n    }\n\n    function withdraw(bytes32 gameId) public bothPlayersRevealed(gameId)\n    {\n        if(games[gameId].status == GameStatus.CLOSED)\n        {\n            return;\n        }\n        if(games[gameId].player_cheated[games[gameId].player1] && !games[gameId].player_cheated[games[gameId].player2])\n        {\n            games[gameId].player2.transfer(games[gameId].bounty);\n            games[gameId].winner = games[gameId].player2;\n        }\n        else if(games[gameId].player_cheated[games[gameId].player2] && !games[gameId].player_cheated[games[gameId].player1])\n        {\n            games[gameId].player1.transfer(games[gameId].bounty);\n            games[gameId].winner = games[gameId].player1;\n        }\n        else if(games[gameId].player_cheated[games[gameId].player1] && games[gameId].player_cheated[games[gameId].player2])\n        {\n            owner.transfer(games[gameId].bounty);\n            games[gameId].winner = address(0);\n        }\n        else\n        {\n            msg.sender.transfer(games[gameId].bounty);\n            games[gameId].winner = msg.sender;\n        }\n        games[gameId].status = GameStatus.CLOSED;\n    }\n\n    function revealWinner(bytes32 gameId) public view bothPlayersRevealed(gameId) returns(address)\n    {\n        if(games[gameId].status == GameStatus.CLOSED)\n        {\n            return games[gameId].winner;\n        }\n        return address(0);\n    }\n\n    function playerCheated(bytes32 gameId) public view bothPlayersRevealed(gameId) returns(bool)\n    {\n        return games[gameId].player_cheated[msg.sender];\n    }\n\n    //testing purpose\n}",
  "sourcePath": "/home/tarun/Documents/Education/Sem_3/Assignments/Blockchain/battleship-blockchain-dapp/contracts/Battleships.sol",
  "compiler": {
    "name": "solc",
    "version": "0.5.8+commit.23d335f2.Emscripten.clang"
  },
  "schemaVersion": "3.0.16",
  "updatedAt": "2019-11-30T06:54:45.749Z",
  "devdoc": {
    "methods": {}
  },
  "userdoc": {
    "methods": {}
  }
}