{
  "contractName": "Battleship",
  "abi": [
    {
      "constant": true,
      "inputs": [
        {
          "name": "",
          "type": "uint256"
        }
      ],
      "name": "games",
      "outputs": [
        {
          "name": "status",
          "type": "uint8"
        },
        {
          "name": "gridSize",
          "type": "uint8"
        },
        {
          "name": "targetIndex",
          "type": "uint8"
        },
        {
          "name": "owner",
          "type": "address"
        },
        {
          "name": "challenger",
          "type": "address"
        },
        {
          "name": "turn",
          "type": "address"
        },
        {
          "name": "winner",
          "type": "address"
        },
        {
          "name": "funds",
          "type": "uint256"
        },
        {
          "name": "num",
          "type": "uint256"
        }
      ],
      "payable": false,
      "stateMutability": "view",
      "type": "function"
    },
    {
      "constant": true,
      "inputs": [],
      "name": "getstate0",
      "outputs": [
        {
          "name": "",
          "type": "uint256"
        }
      ],
      "payable": false,
      "stateMutability": "view",
      "type": "function"
    },
    {
      "constant": true,
      "inputs": [],
      "name": "getstate1",
      "outputs": [
        {
          "name": "",
          "type": "uint256"
        }
      ],
      "payable": false,
      "stateMutability": "view",
      "type": "function"
    },
    {
      "constant": true,
      "inputs": [],
      "name": "getstate2",
      "outputs": [
        {
          "name": "",
          "type": "uint256"
        }
      ],
      "payable": false,
      "stateMutability": "view",
      "type": "function"
    },
    {
      "constant": true,
      "inputs": [
        {
          "name": "gameId",
          "type": "uint256"
        }
      ],
      "name": "getStatus",
      "outputs": [
        {
          "name": "",
          "type": "uint8"
        }
      ],
      "payable": false,
      "stateMutability": "view",
      "type": "function"
    },
    {
      "constant": true,
      "inputs": [
        {
          "name": "gameId",
          "type": "uint256"
        }
      ],
      "name": "getChallenger",
      "outputs": [
        {
          "name": "",
          "type": "address"
        }
      ],
      "payable": false,
      "stateMutability": "view",
      "type": "function"
    },
    {
      "constant": true,
      "inputs": [
        {
          "name": "gameId",
          "type": "uint256"
        }
      ],
      "name": "getOwner",
      "outputs": [
        {
          "name": "",
          "type": "address"
        }
      ],
      "payable": false,
      "stateMutability": "view",
      "type": "function"
    },
    {
      "constant": true,
      "inputs": [
        {
          "name": "gameId",
          "type": "uint256"
        }
      ],
      "name": "getWinner",
      "outputs": [
        {
          "name": "",
          "type": "address"
        }
      ],
      "payable": false,
      "stateMutability": "view",
      "type": "function"
    },
    {
      "constant": true,
      "inputs": [
        {
          "name": "gameId",
          "type": "uint256"
        }
      ],
      "name": "getTurn",
      "outputs": [
        {
          "name": "",
          "type": "address"
        }
      ],
      "payable": false,
      "stateMutability": "view",
      "type": "function"
    },
    {
      "constant": true,
      "inputs": [
        {
          "name": "gameId",
          "type": "uint256"
        }
      ],
      "name": "getTargetIndex",
      "outputs": [
        {
          "name": "",
          "type": "uint8"
        }
      ],
      "payable": false,
      "stateMutability": "view",
      "type": "function"
    },
    {
      "constant": true,
      "inputs": [
        {
          "name": "player",
          "type": "address"
        }
      ],
      "name": "getgame_list_of_a_player",
      "outputs": [
        {
          "name": "",
          "type": "uint256[]"
        }
      ],
      "payable": false,
      "stateMutability": "view",
      "type": "function"
    },
    {
      "constant": true,
      "inputs": [
        {
          "name": "gameId",
          "type": "uint256"
        },
        {
          "name": "player",
          "type": "address"
        }
      ],
      "name": "getGameTarget",
      "outputs": [
        {
          "name": "",
          "type": "int256[]"
        }
      ],
      "payable": false,
      "stateMutability": "view",
      "type": "function"
    },
    {
      "constant": true,
      "inputs": [
        {
          "name": "gameId",
          "type": "uint256"
        },
        {
          "name": "player",
          "type": "address"
        }
      ],
      "name": "getGameOcean",
      "outputs": [
        {
          "name": "",
          "type": "int256[]"
        }
      ],
      "payable": false,
      "stateMutability": "view",
      "type": "function"
    },
    {
      "constant": false,
      "inputs": [
        {
          "name": "gridSize",
          "type": "uint8"
        },
        {
          "name": "secret",
          "type": "bytes32"
        }
      ],
      "name": "createGame",
      "outputs": [],
      "payable": true,
      "stateMutability": "payable",
      "type": "function"
    },
    {
      "constant": false,
      "inputs": [
        {
          "name": "gameId",
          "type": "uint256"
        },
        {
          "name": "secret",
          "type": "bytes32"
        }
      ],
      "name": "joinGame",
      "outputs": [],
      "payable": true,
      "stateMutability": "payable",
      "type": "function"
    },
    {
      "constant": false,
      "inputs": [
        {
          "name": "gameId",
          "type": "uint256"
        },
        {
          "name": "x",
          "type": "uint8"
        },
        {
          "name": "y",
          "type": "uint8"
        }
      ],
      "name": "attack",
      "outputs": [],
      "payable": true,
      "stateMutability": "payable",
      "type": "function"
    },
    {
      "constant": false,
      "inputs": [
        {
          "name": "gameId",
          "type": "uint256"
        },
        {
          "name": "x",
          "type": "uint8"
        },
        {
          "name": "y",
          "type": "uint8"
        },
        {
          "name": "hitt",
          "type": "bool"
        }
      ],
      "name": "counterAttack",
      "outputs": [],
      "payable": true,
      "stateMutability": "payable",
      "type": "function"
    },
    {
      "constant": false,
      "inputs": [
        {
          "name": "gameId",
          "type": "uint256"
        },
        {
          "name": "salt",
          "type": "string"
        },
        {
          "name": "ship",
          "type": "string"
        },
        {
          "name": "player",
          "type": "address"
        }
      ],
      "name": "reveal",
      "outputs": [],
      "payable": false,
      "stateMutability": "nonpayable",
      "type": "function"
    },
    {
      "constant": false,
      "inputs": [
        {
          "name": "gameId",
          "type": "uint256"
        }
      ],
      "name": "withdraw",
      "outputs": [],
      "payable": false,
      "stateMutability": "nonpayable",
      "type": "function"
    },
    {
      "constant": false,
      "inputs": [
        {
          "name": "grid",
          "type": "int256[]"
        }
      ],
      "name": "getGridState",
      "outputs": [
        {
          "name": "",
          "type": "uint256[3]"
        }
      ],
      "payable": true,
      "stateMutability": "payable",
      "type": "function"
    },
    {
      "constant": true,
      "inputs": [
        {
          "name": "player",
          "type": "address"
        },
        {
          "name": "gameId",
          "type": "uint256"
        }
      ],
      "name": "getMoveList",
      "outputs": [
        {
          "name": "",
          "type": "uint8[100]"
        }
      ],
      "payable": false,
      "stateMutability": "view",
      "type": "function"
    }
  ],
  "bytecode": "0x6080604052670de0b6b3a764000060005560006001556000600255600060035534801561002b57600080fd5b50612b9e8061003b6000396000f3fe60806040526004361061012a5760003560e01c806382f2fdf5116100ab578063b55991c01161006f578063b55991c01461091b578063b8b571a914610996578063c41a360a14610a3c578063ca6ed7f014610ab7578063dc80cc0c14610b67578063dfd761aa14610baf5761012a565b806382f2fdf51461067d5780639b1ce24e14610771578063aa5a2aba14610808578063ac952671146108b8578063b1f3e90f146108f05761012a565b80633efd1403116100f25780633efd1403146104c45780634129b2c9146104ff5780634939ce3e1461057a5780635c622a0e146105a5578063729f576c146106025761012a565b80630d81aa761461012f578063117a5b90146101845780632156fc3f146102d55780632e1a7d4d14610300578063359fa2061461033b575b600080fd5b34801561013b57600080fd5b506101686004803603602081101561015257600080fd5b8101908080359060200190929190505050610c03565b604051808260ff1660ff16815260200191505060405180910390f35b34801561019057600080fd5b506101bd600480360360208110156101a757600080fd5b8101908080359060200190929190505050610c38565b604051808a60048111156101cd57fe5b60ff1681526020018960ff1660ff1681526020018860ff1660ff1681526020018773ffffffffffffffffffffffffffffffffffffffff1673ffffffffffffffffffffffffffffffffffffffff1681526020018673ffffffffffffffffffffffffffffffffffffffff1673ffffffffffffffffffffffffffffffffffffffff1681526020018573ffffffffffffffffffffffffffffffffffffffff1673ffffffffffffffffffffffffffffffffffffffff1681526020018473ffffffffffffffffffffffffffffffffffffffff1673ffffffffffffffffffffffffffffffffffffffff168152602001838152602001828152602001995050505050505050505060405180910390f35b3480156102e157600080fd5b506102ea610d3a565b6040518082815260200191505060405180910390f35b34801561030c57600080fd5b506103396004803603602081101561032357600080fd5b8101908080359060200190929190505050610d44565b005b34801561034757600080fd5b506104c26004803603608081101561035e57600080fd5b81019080803590602001909291908035906020019064010000000081111561038557600080fd5b82018360208201111561039757600080fd5b803590602001918460018302840111640100000000831117156103b957600080fd5b91908080601f016020809104026020016040519081016040528093929190818152602001838380828437600081840152601f19601f8201169050808301925050505050505091929192908035906020019064010000000081111561041c57600080fd5b82018360208201111561042e57600080fd5b8035906020019184600183028401116401000000008311171561045057600080fd5b91908080601f016020809104026020016040519081016040528093929190818152602001838380828437600081840152601f19601f820116905080830192505050505050509192919290803573ffffffffffffffffffffffffffffffffffffffff169060200190929190505050610e55565b005b6104fd600480360360408110156104da57600080fd5b81019080803560ff1690602001909291908035906020019092919050505061115e565b005b34801561050b57600080fd5b506105386004803603602081101561052257600080fd5b81019080803590602001909291905050506114e2565b604051808273ffffffffffffffffffffffffffffffffffffffff1673ffffffffffffffffffffffffffffffffffffffff16815260200191505060405180910390f35b34801561058657600080fd5b5061058f61152a565b6040518082815260200191505060405180910390f35b3480156105b157600080fd5b506105de600480360360208110156105c857600080fd5b8101908080359060200190929190505050611534565b604051808260048111156105ee57fe5b60ff16815260200191505060405180910390f35b34801561060e57600080fd5b5061063b6004803603602081101561062557600080fd5b8101908080359060200190929190505050611569565b604051808273ffffffffffffffffffffffffffffffffffffffff1673ffffffffffffffffffffffffffffffffffffffff16815260200191505060405180910390f35b6107336004803603602081101561069357600080fd5b81019080803590602001906401000000008111156106b057600080fd5b8201836020820111156106c257600080fd5b803590602001918460208302840111640100000000831117156106e457600080fd5b919080806020026020016040519081016040528093929190818152602001838360200280828437600081840152601f19601f8201169050808301925050505050505091929192905050506115b1565b6040518082600360200280838360005b8381101561075e578082015181840152602081019050610743565b5050505090500191505060405180910390f35b34801561077d57600080fd5b506107ca6004803603604081101561079457600080fd5b81019080803573ffffffffffffffffffffffffffffffffffffffff169060200190929190803590602001909291905050506116c8565b6040518082606460200280838360005b838110156107f55780820151818401526020810190506107da565b5050505090500191505060405180910390f35b34801561081457600080fd5b506108616004803603604081101561082b57600080fd5b8101908080359060200190929190803573ffffffffffffffffffffffffffffffffffffffff169060200190929190505050611852565b6040518080602001828103825283818151815260200191508051906020019060200280838360005b838110156108a4578082015181840152602081019050610889565b505050509050019250505060405180910390f35b6108ee600480360360408110156108ce57600080fd5b810190808035906020019092919080359060200190929190505050611906565b005b3480156108fc57600080fd5b50610905611d8c565b6040518082815260200191505060405180910390f35b34801561092757600080fd5b506109546004803603602081101561093e57600080fd5b8101908080359060200190929190505050611d96565b604051808273ffffffffffffffffffffffffffffffffffffffff1673ffffffffffffffffffffffffffffffffffffffff16815260200191505060405180910390f35b3480156109a257600080fd5b506109e5600480360360208110156109b957600080fd5b81019080803573ffffffffffffffffffffffffffffffffffffffff169060200190929190505050611dde565b6040518080602001828103825283818151815260200191508051906020019060200280838360005b83811015610a28578082015181840152602081019050610a0d565b505050509050019250505060405180910390f35b348015610a4857600080fd5b50610a7560048036036020811015610a5f57600080fd5b8101908080359060200190929190505050611e75565b604051808273ffffffffffffffffffffffffffffffffffffffff1673ffffffffffffffffffffffffffffffffffffffff16815260200191505060405180910390f35b348015610ac357600080fd5b50610b1060048036036040811015610ada57600080fd5b8101908080359060200190929190803573ffffffffffffffffffffffffffffffffffffffff169060200190929190505050611ebd565b6040518080602001828103825283818151815260200191508051906020019060200280838360005b83811015610b53578082015181840152602081019050610b38565b505050509050019250505060405180910390f35b610bad60048036036060811015610b7d57600080fd5b8101908080359060200190929190803560ff169060200190929190803560ff169060200190929190505050611f80565b005b610c0160048036036080811015610bc557600080fd5b8101908080359060200190929190803560ff169060200190929190803560ff1690602001909291908035151590602001909291905050506120b7565b005b6000600b8281548110610c1257fe5b906000526020600020906012020160000160029054906101000a900460ff169050919050565b600b8181548110610c4557fe5b90600052602060002090601202016000915090508060000160009054906101000a900460ff16908060000160019054906101000a900460ff16908060000160029054906101000a900460ff16908060000160039054906101000a900473ffffffffffffffffffffffffffffffffffffffff16908060010160009054906101000a900473ffffffffffffffffffffffffffffffffffffffff16908060020160009054906101000a900473ffffffffffffffffffffffffffffffffffffffff16908060030160009054906101000a900473ffffffffffffffffffffffffffffffffffffffff16908060040154908060050154905089565b6000600554905090565b80600480811115610d5157fe5b600b8281548110610d5e57fe5b906000526020600020906012020160000160009054906101000a900460ff166004811115610d8857fe5b14610d9257600080fd5b3373ffffffffffffffffffffffffffffffffffffffff16600b8281548110610db657fe5b906000526020600020906012020160030160009054906101000a900473ffffffffffffffffffffffffffffffffffffffff1673ffffffffffffffffffffffffffffffffffffffff1614610e0857600080fd5b3373ffffffffffffffffffffffffffffffffffffffff166108fc6000549081150290604051600060405180830381858888f19350505050158015610e50573d6000803e3d6000fd5b505050565b8360036004811115610e6357fe5b600b8281548110610e7057fe5b906000526020600020906012020160000160009054906101000a900460ff166004811115610e9a57fe5b14610ea457600080fd5b84600b8181548110610eb257fe5b906000526020600020906012020160000160039054906101000a900473ffffffffffffffffffffffffffffffffffffffff1673ffffffffffffffffffffffffffffffffffffffff163373ffffffffffffffffffffffffffffffffffffffff161480610f865750600b8181548110610f2557fe5b906000526020600020906012020160010160009054906101000a900473ffffffffffffffffffffffffffffffffffffffff1673ffffffffffffffffffffffffffffffffffffffff163373ffffffffffffffffffffffffffffffffffffffff16145b610f8f57600080fd5b856000600b8281548110610f9f57fe5b906000526020600020906012020160070160003373ffffffffffffffffffffffffffffffffffffffff1673ffffffffffffffffffffffffffffffffffffffff1681526020019081526020016000208054600181600116156101000203166002900490501461100c57600080fd5b600b878154811061101957fe5b906000526020600020906012020160060160008573ffffffffffffffffffffffffffffffffffffffff1673ffffffffffffffffffffffffffffffffffffffff168152602001908152602001600020546110728787612486565b146110e5576040517f08c379a000000000000000000000000000000000000000000000000000000000815260040180806020018281038252600c8152602001807f796f75206368656174656421000000000000000000000000000000000000000081525060200191505060405180910390fd5b84600b88815481106110f357fe5b906000526020600020906012020160070160008673ffffffffffffffffffffffffffffffffffffffff1673ffffffffffffffffffffffffffffffffffffffff1681526020019081526020016000209080519060200190611154929190612879565b5050505050505050565b60005434146111d5576040517f08c379a000000000000000000000000000000000000000000000000000000000815260040180806020018281038252600b8152602001807f626964203120657468657200000000000000000000000000000000000000000081525060200191505060405180910390fd5b6000600b805490509050600b80548091906001016111f391906128f9565b506000600b828154811061120357fe5b9060005260206000209060120201600501819055506000600b828154811061122757fe5b906000526020600020906012020160000160006101000a81548160ff0219169083600481111561125357fe5b021790555082600b828154811061126657fe5b906000526020600020906012020160000160016101000a81548160ff021916908360ff16021790555033600b828154811061129d57fe5b906000526020600020906012020160000160036101000a81548173ffffffffffffffffffffffffffffffffffffffff021916908373ffffffffffffffffffffffffffffffffffffffff16021790555033600b82815481106112fa57fe5b906000526020600020906012020160020160006101000a81548173ffffffffffffffffffffffffffffffffffffffff021916908373ffffffffffffffffffffffffffffffffffffffff16021790555081600b828154811061135757fe5b906000526020600020906012020160060160003373ffffffffffffffffffffffffffffffffffffffff1673ffffffffffffffffffffffffffffffffffffffff1681526020019081526020016000208190555060028360ff160a60ff166040519080825280602002602001820160405280156113e15781602001602082028038833980820191505090505b50600b82815481106113ef57fe5b906000526020600020906012020160080160003373ffffffffffffffffffffffffffffffffffffffff1673ffffffffffffffffffffffffffffffffffffffff168152602001908152602001600020908051906020019061145092919061292b565b5034600b828154811061145f57fe5b906000526020600020906012020160040181905550600c60003373ffffffffffffffffffffffffffffffffffffffff1673ffffffffffffffffffffffffffffffffffffffff168152602001908152602001600020819080600181540180825580915050906001820390600052602060002001600090919290919091505550505050565b6000600b82815481106114f157fe5b906000526020600020906012020160030160009054906101000a900473ffffffffffffffffffffffffffffffffffffffff169050919050565b6000600454905090565b6000600b828154811061154357fe5b906000526020600020906012020160000160009054906101000a900460ff169050919050565b6000600b828154811061157857fe5b906000526020600020906012020160010160009054906101000a900473ffffffffffffffffffffffffffffffffffffffff169050919050565b6115b9612978565b60006002819055506000600181905550600060038190555060008090505b825181101561169f577fffffffffffffffffffffffffffffffffffffffffffffffffffffffffffffffff60000b83828151811061161057fe5b60200260200101511415611631576001600081548092919060010191905055505b600160000b83828151811061164257fe5b60200260200101511415611663576002600081548092919060010191905055505b600083828151811061167157fe5b60200260200101511415611692576003600081548092919060010191905055505b80806001019150506115d7565b506040518060600160405280600154815260200160025481526020016003548152509050919050565b6116d061299a565b8273ffffffffffffffffffffffffffffffffffffffff16600b83815481106116f457fe5b906000526020600020906012020160000160039054906101000a900473ffffffffffffffffffffffffffffffffffffffff1673ffffffffffffffffffffffffffffffffffffffff1614156117c957600b828154811061174f57fe5b9060005260206000209060120201600a016064806020026040519081016040528092919082606480156117bd576020028201916000905b82829054906101000a900460ff1660ff16815260200190600101906020826000010492830192600103820291508084116117865790505b5050505050905061184c565b600b82815481106117d657fe5b9060005260206000209060120201600e01606480602002604051908101604052809291908260648015611844576020028201916000905b82829054906101000a900460ff1660ff168152602001906001019060208260000104928301926001038202915080841161180d5790505b505050505090505b92915050565b6060600b838154811061186157fe5b906000526020600020906012020160080160008373ffffffffffffffffffffffffffffffffffffffff1673ffffffffffffffffffffffffffffffffffffffff1681526020019081526020016000208054806020026020016040519081016040528092919081815260200182805480156118f957602002820191906000526020600020905b8154815260200190600101908083116118e5575b5050505050905092915050565b816000600481111561191457fe5b600b828154811061192157fe5b906000526020600020906012020160000160009054906101000a900460ff16600481111561194b57fe5b1461195557600080fd5b60005434146119cc576040517f08c379a000000000000000000000000000000000000000000000000000000000815260040180806020018281038252600b8152602001807f626964203120657468657200000000000000000000000000000000000000000081525060200191505060405180910390fd5b3373ffffffffffffffffffffffffffffffffffffffff16600b84815481106119f057fe5b906000526020600020906012020160000160039054906101000a900473ffffffffffffffffffffffffffffffffffffffff1673ffffffffffffffffffffffffffffffffffffffff161415611a8f576040517f08c379a0000000000000000000000000000000000000000000000000000000008152600401808060200182810382526028815260200180612b4b6028913960400191505060405180910390fd5b34600b8481548110611a9d57fe5b90600052602060002090601202016004015414611b22576040517f08c379a00000000000000000000000000000000000000000000000000000000081526004018080602001828103825260128152602001807f696e73756666696369656e742066756e6473000000000000000000000000000081525060200191505060405180910390fd5b6001600b8481548110611b3157fe5b906000526020600020906012020160000160006101000a81548160ff02191690836004811115611b5d57fe5b021790555033600b8481548110611b7057fe5b906000526020600020906012020160010160006101000a81548173ffffffffffffffffffffffffffffffffffffffff021916908373ffffffffffffffffffffffffffffffffffffffff16021790555081600b8481548110611bcd57fe5b906000526020600020906012020160060160003373ffffffffffffffffffffffffffffffffffffffff1673ffffffffffffffffffffffffffffffffffffffff168152602001908152602001600020819055506002600b8481548110611c2e57fe5b906000526020600020906012020160000160019054906101000a900460ff1660ff160a60ff16604051908082528060200260200182016040528015611c825781602001602082028038833980820191505090505b50600b8481548110611c9057fe5b906000526020600020906012020160080160003373ffffffffffffffffffffffffffffffffffffffff1673ffffffffffffffffffffffffffffffffffffffff1681526020019081526020016000209080519060200190611cf192919061292b565b5034600b8481548110611d0057fe5b906000526020600020906012020160040160008282540192505081905550600c60003373ffffffffffffffffffffffffffffffffffffffff1673ffffffffffffffffffffffffffffffffffffffff168152602001908152602001600020839080600181540180825580915050906001820390600052602060002001600090919290919091505550505050565b6000600654905090565b6000600b8281548110611da557fe5b906000526020600020906012020160020160009054906101000a900473ffffffffffffffffffffffffffffffffffffffff169050919050565b6060600c60008373ffffffffffffffffffffffffffffffffffffffff1673ffffffffffffffffffffffffffffffffffffffff168152602001908152602001600020805480602002602001604051908101604052809291908181526020018280548015611e6957602002820191906000526020600020905b815481526020019060010190808311611e55575b50505050509050919050565b6000600b8281548110611e8457fe5b906000526020600020906012020160000160039054906101000a900473ffffffffffffffffffffffffffffffffffffffff169050919050565b60606000611ecb8484612555565b9050600b8481548110611eda57fe5b906000526020600020906012020160080160008273ffffffffffffffffffffffffffffffffffffffff1673ffffffffffffffffffffffffffffffffffffffff168152602001908152602001600020805480602002602001604051908101604052809291908181526020018280548015611f7257602002820191906000526020600020905b815481526020019060010190808311611f5e575b505050505091505092915050565b8260016004811115611f8e57fe5b600b8281548110611f9b57fe5b906000526020600020906012020160000160009054906101000a900460ff166004811115611fc557fe5b14611fcf57600080fd5b83600b8181548110611fdd57fe5b906000526020600020906012020160020160009054906101000a900473ffffffffffffffffffffffffffffffffffffffff1673ffffffffffffffffffffffffffffffffffffffff163373ffffffffffffffffffffffffffffffffffffffff161461204657600080fd5b60006120528585612654565b905060006120608733612555565b90506002600b888154811061207157fe5b906000526020600020906012020160000160006101000a81548160ff0219169083600481111561209d57fe5b02179055506120ae87338385612669565b50505050505050565b83600260048111156120c557fe5b600b82815481106120d257fe5b906000526020600020906012020160000160009054906101000a900460ff1660048111156120fc57fe5b1461210657600080fd5b84600b818154811061211457fe5b906000526020600020906012020160020160009054906101000a900473ffffffffffffffffffffffffffffffffffffffff1673ffffffffffffffffffffffffffffffffffffffff163373ffffffffffffffffffffffffffffffffffffffff161461217d57600080fd5b60006121898686612654565b905060006121978833612555565b90506000600b89815481106121a857fe5b906000526020600020906012020160000160029054906101000a900460ff169050856121f4577fffffffffffffffffffffffffffffffffffffffffffffffffffffffffffffffff6121f7565b60015b60000b600b8a8154811061220757fe5b906000526020600020906012020160080160008473ffffffffffffffffffffffffffffffffffffffff1673ffffffffffffffffffffffffffffffffffffffff1681526020019081526020016000208260ff168154811061226357fe5b906000526020600020018190555061227d89338486612669565b612285612978565b612337600b8b8154811061229557fe5b906000526020600020906012020160080160008573ffffffffffffffffffffffffffffffffffffffff1673ffffffffffffffffffffffffffffffffffffffff16815260200190815260200160002080548060200260200160405190810160405280929190818152602001828054801561232d57602002820191906000526020600020905b815481526020019060010190808311612319575b50505050506115b1565b90506000601190508160006003811061234c57fe5b60200201516005819055508160016003811061236457fe5b60200201516004819055508160026003811061237c57fe5b60200201516006819055506000818360016003811061239757fe5b6020020151101590506000836002600381106123af57fe5b6020020151846001600381106123c157fe5b6020020151840311905081806123d45750805b15612477576003600b8e815481106123e857fe5b906000526020600020906012020160000160006101000a81548160ff0219169083600481111561241457fe5b021790555085600b8e8154811061242757fe5b906000526020600020906012020160030160006101000a81548173ffffffffffffffffffffffffffffffffffffffff021916908373ffffffffffffffffffffffffffffffffffffffff1602179055505b50505050505050505050505050565b600082826040516020018083805190602001908083835b602083106124c0578051825260208201915060208101905060208303925061249d565b6001836020036101000a03801982511681845116808217855250505050505090500182805190602001908083835b6020831061251157805182526020820191506020810190506020830392506124ee565b6001836020036101000a0380198251168184511680821785525050505050509050019250505060405160208183030381529060405280519060200120905092915050565b60008173ffffffffffffffffffffffffffffffffffffffff16600b848154811061257b57fe5b906000526020600020906012020160000160039054906101000a900473ffffffffffffffffffffffffffffffffffffffff1673ffffffffffffffffffffffffffffffffffffffff161461260c57600b83815481106125d557fe5b906000526020600020906012020160000160039054906101000a900473ffffffffffffffffffffffffffffffffffffffff1661264c565b600b838154811061261957fe5b906000526020600020906012020160010160009054906101000a900473ffffffffffffffffffffffffffffffffffffffff165b905092915050565b60008082600a85020190508091505092915050565b80600b858154811061267757fe5b906000526020600020906012020160000160026101000a81548160ff021916908360ff16021790555081600b85815481106126ae57fe5b906000526020600020906012020160020160006101000a81548173ffffffffffffffffffffffffffffffffffffffff021916908373ffffffffffffffffffffffffffffffffffffffff1602179055508273ffffffffffffffffffffffffffffffffffffffff16600b858154811061272157fe5b906000526020600020906012020160000160039054906101000a900473ffffffffffffffffffffffffffffffffffffffff1673ffffffffffffffffffffffffffffffffffffffff16141561280a5780600b858154811061277d57fe5b9060005260206000209060120201600a01600b868154811061279b57fe5b906000526020600020906012020160050154606481106127b757fe5b602091828204019190066101000a81548160ff021916908360ff160217905550600b84815481106127e457fe5b906000526020600020906012020160050160008154809291906001019190505550612873565b80600b858154811061281857fe5b9060005260206000209060120201600e01600b868154811061283657fe5b9060005260206000209060120201600501546064811061285257fe5b602091828204019190066101000a81548160ff021916908360ff1602179055505b50505050565b828054600181600116156101000203166002900490600052602060002090601f016020900481019282601f106128ba57805160ff19168380011785556128e8565b828001600101855582156128e8579182015b828111156128e75782518255916020019190600101906128cc565b5b5090506128f591906129bd565b5090565b8154818355818111156129265760120281601202836000526020600020918201910161292591906129e2565b5b505050565b828054828255906000526020600020908101928215612967579160200282015b8281111561296657825182559160200191906001019061294b565b5b5090506129749190612b09565b5090565b6040518060600160405280600390602082028038833980820191505090505090565b60405180610c800160405280606490602082028038833980820191505090505090565b6129df91905b808211156129db5760008160009055506001016129c3565b5090565b90565b612b0691905b80821115612b0257600080820160006101000a81549060ff02191690556000820160016101000a81549060ff02191690556000820160026101000a81549060ff02191690556000820160036101000a81549073ffffffffffffffffffffffffffffffffffffffff02191690556001820160006101000a81549073ffffffffffffffffffffffffffffffffffffffff02191690556002820160006101000a81549073ffffffffffffffffffffffffffffffffffffffff02191690556003820160006101000a81549073ffffffffffffffffffffffffffffffffffffffff021916905560048201600090556005820160009055600a82016000612ae99190612b2e565b600e82016000612af99190612b2e565b506012016129e8565b5090565b90565b612b2b91905b80821115612b27576000816000905550600101612b0f565b5090565b90565b506000815560010160008155600101600081556001016000905556fe6f776e65722063616e6e6f74206a6f696e20616761696e2c20686520616c72656164792068617321a165627a7a7230582022676074b08608e9efff547c4f0ea8675133c18f71444c2d9c3701c68d9e1bea0029",
  "source": "pragma solidity >=0.4.22 <0.6.0;\n\ncontract Battleship \n{\n  uint8 constant GRID_SIZE = 10;\n  uint8 constant SHIP_CARRIER = 5;\n  uint8 constant SHIP_BATTLESHIP = 4;\n  uint8 constant SHIP_CRUISER = 3;\n  uint8 constant SHIP_SUBMARINE = 3;\n  uint8 constant SHIP_DESTROYER = 2;\n  uint private bidAmount = 1 ether;\n  int8 constant HIT = 1;\n  int8 constant MISS = -1;\n  uint miss = 0;\n  uint hit = 0;\n  uint empty = 0;\n  uint win;\n  uint lost;\n  uint nothin;\n  bytes positions;\n  uint shipp;\n  bytes1 cnt;\n  bytes32 secret_test;//=0x1bd1a2e6d0afcba49b2ce8cd8749126088dcbc0916ca2ac53e363cd5820db3c9;\n  enum GameStatus { OPEN, READY, STARTED, FINISHED, DONE }\n  struct Game {\n    GameStatus status;\n    uint8 gridSize; //board size\n    uint8 targetIndex; //index of the attack this user makes\n    address payable owner; // who created the game\n    address payable challenger; // who joined the already created game\n    address turn; // whose turn\n    address winner; // who's the winner\n    uint funds;// amount required to play\n    uint num; // move number\n    mapping (address => bytes32) secrets; // hashes of board\n    mapping (address => string) ships; // (ocean board)original location of ships , will be stored during reveal\n    mapping (address => int[]) targets; // target board corresponding to a user\n    mapping (address => bool) cheated; // did a particular user cheat\n    uint8[100] moves_owner; // list of moves player1\n    uint8[100] moves_challenger;  // list of moves player2\n  }\n  \n  Game[] public games;\n\n  mapping (address => uint[]) private game_list_of_a_player;\n\n  modifier onlyPlayer(uint gameId) {\n    require(msg.sender == games[gameId].owner || msg.sender == games[gameId].challenger); // either player1 or player2 only\n    _;\n  }\n\n  modifier onlyWinner(uint gameId) {\n    require(games[gameId].status == GameStatus.DONE); \n    require(games[gameId].winner == msg.sender); \n    _;\n  }\n\n  modifier myTurn(uint gameId) {\n    require(msg.sender == games[gameId].turn);\n    _;\n  }\n\n  modifier gameOpen(uint gameId) {\n    require(games[gameId].status == GameStatus.OPEN);\n    _;\n  }\n\n  modifier gameReady(uint gameId) {\n    require(games[gameId].status == GameStatus.READY);\n    _;\n  }\n\n  modifier gameStarted(uint gameId) {\n    require(games[gameId].status == GameStatus.STARTED);\n    _;\n  }\n\n  modifier gameFinished(uint gameId) {\n    require(games[gameId].status == GameStatus.FINISHED);\n    _;\n  }\n\n  modifier notRevealed(uint gameId) {\n    require(bytes(games[gameId].ships[msg.sender]).length == 0); // not revealed => not yet stored in ocean board\n    _;\n  }\n\n// function getHash(uint gameId) external view returns(uint)\n//   {\n//     return shipp;\n//   }\n  \n  function getstate0() public view returns(uint)\n  {\n    return lost;\n  }\n  function getstate1() public view returns(uint)\n  {\n    return win;\n  }\n  function getstate2() public view returns(uint)\n  {\n    return nothin;\n  }\n  function getStatus(uint gameId) external view returns(GameStatus)\n  {\n    return games[gameId].status;\n  }\n  function getChallenger(uint gameId) external view returns(address)\n  {\n    return games[gameId].challenger;\n  }\n  function getOwner(uint gameId) external view returns(address)\n  {\n    return games[gameId].owner;\n  }\n  function getWinner(uint gameId) external view returns(address)\n  {\n    return games[gameId].winner;\n  }\n  function getTurn(uint gameId) external view returns(address)\n  {\n    return games[gameId].turn;\n  }\n  function getTargetIndex(uint gameId) external view returns(uint8)\n  {\n    return games[gameId].targetIndex;\n  }\n  function getgame_list_of_a_player(address player) external view returns(uint[] memory)\n  {\n    return game_list_of_a_player[player];\n  }\n\n  function getGameTarget(uint gameId, address player) external view returns(int[] memory)\n  {\n    return games[gameId].targets[player];\n  }\n\n  function getGameOcean(uint gameId, address player) external view returns(int[] memory)\n  {\n    address opponent = getOpponent(gameId, player);\n\n    return games[gameId].targets[opponent];\n  }\n\n  \n  function createGame(uint8 gridSize, bytes32 secret) public payable\n  {\n    require (msg.value == bidAmount,\"bid 1 ether\");\n    uint gameId = games.length;\n    games.length++;\n    games[gameId].num = 0;\n    games[gameId].status = GameStatus.OPEN; // created\n    games[gameId].gridSize = gridSize;\n    games[gameId].owner = msg.sender;\n    games[gameId].turn = msg.sender; // set player1's turn\n    games[gameId].secrets[msg.sender] = secret;\n    games[gameId].targets[msg.sender] = new int[](gridSize ** 2); // make new target board for player1\n    games[gameId].funds = msg.value;\n\n    game_list_of_a_player[msg.sender].push(gameId);\n\n  }\n\n  function joinGame(uint gameId, bytes32 secret) public payable gameOpen(gameId)\n  {\n    require (msg.value == bidAmount,\"bid 1 ether\");  \n    require(games[gameId].owner != msg.sender ,\"owner cannot join again, he already has!\"); \n    require(games[gameId].funds == msg.value,\"insufficient funds\");\n\n    games[gameId].status = GameStatus.READY;\n    games[gameId].challenger = msg.sender; // player2 is the challenger\n    games[gameId].secrets[msg.sender] = secret;\n    games[gameId].targets[msg.sender] = new int[](games[gameId].gridSize ** 2); // make new target board for player2\n    games[gameId].funds += msg.value;\n\n    game_list_of_a_player[msg.sender].push(gameId);\n  }\n\nfunction convert_to_1D(uint8 x, uint8 y) private pure returns(uint8)\n{\n    uint8 ans = (x * 10) + y;\n    return(ans);\n}\n  function attack(uint gameId, uint8 x,uint8 y) public payable gameReady(gameId) myTurn(gameId)\n  {\n      uint8 index = convert_to_1D(x,y);\n    address opponent = getOpponent(gameId, msg.sender);\n\n    games[gameId].status = GameStatus.STARTED; // first attack happened\n\n    _attack(gameId, msg.sender, opponent, index);\n  }\n\n  function counterAttack(uint gameId, uint8 x, uint8 y, bool hitt) public payable gameStarted(gameId) myTurn(gameId)\n  {\n    uint8 index = convert_to_1D(x,y);  \n    address payable opponent = getOpponent(gameId, msg.sender);\n    uint8 targetIndex = games[gameId].targetIndex;\n\n    games[gameId].targets[opponent][targetIndex] = hitt ? HIT : MISS;\n\n    _attack(gameId, msg.sender, opponent, index);\n\n    uint[3] memory state = getGridState(games[gameId].targets[opponent]);\n    uint fleet = 17;//getFleetSize(games[gameId].gridSize);\n    lost = state[0];\n    win = state[1];\n    nothin = state[2];\n    bool isWon = state[1] >= fleet;\n    bool isVoid = (fleet - state[1]) > state[2];\n\n    if (isWon || isVoid) {\n      games[gameId].status = GameStatus.FINISHED;\n      games[gameId].winner = opponent;\n      //opponent.transfer(games[gameId].funds);\n\n    }\n  }\n\n  function reveal(uint gameId, string memory salt, string memory ship, address player) public gameFinished(gameId) onlyPlayer(gameId) notRevealed(gameId)\n  {\n    require(getSecret(salt, ship) == games[gameId].secrets[player],\"you cheated!\");\n    games[gameId].ships[player] = ship;\n  }\n\n  function withdraw(uint gameId) public onlyWinner(gameId) {\n    // uint amount = games[gameId].funds;\n    // games[gameId].funds = 0;\n    msg.sender.transfer(bidAmount);\n  }\n\n  function _attack(uint gameId, address attacker, address defender, uint8 index) internal {\n    games[gameId].targetIndex = index;\n    games[gameId].turn = defender; // Toggle turn\n    if(games[gameId].owner == attacker)\n    {\n      games[gameId].moves_owner[games[gameId].num]=index;\n      games[gameId].num ++;\n    }\n    else\n    {\n      games[gameId].moves_challenger[games[gameId].num]=index;\n    }\n\n  }\n\n\n  function getOpponent(uint gameId, address player) internal view returns(address payable) {\n    return games[gameId].owner == player ? games[gameId].challenger : games[gameId].owner;\n  }\n\n  function getSecret(string memory ships, string memory salt) private pure returns(bytes32) {\n    return keccak256(abi.encodePacked(ships, salt));\n  }\n\n\n  function getGridState(int[] memory grid)public payable returns(uint[3] memory) {\n    hit = 0;\n    miss = 0;\n    empty = 0;\n    for (uint i = 0; i < grid.length; i++) {\n      if (grid[i] == MISS) {\n        miss++;\n      }\n\n      if (grid[i] == HIT) {\n        hit++;\n      }\n\n      if (grid[i] == 0) {\n        empty++;\n      }\n    }\n\n    return [miss, hit, empty];\n  }\n\n  function getMoveList(address player,uint gameId) public view returns(uint8[100] memory)\n  {\n    if(games[gameId].owner == player)\n      return games[gameId].moves_owner;\n    else\n      return games[gameId].moves_challenger;\n  }\n  function getFleetSize(uint8 gridSize) internal pure returns(uint) {\n      gridSize=10;\n    return SHIP_CARRIER + SHIP_BATTLESHIP + SHIP_CRUISER + SHIP_SUBMARINE + SHIP_DESTROYER;\n  }\n\n \n}\n",
  "sourcePath": "/home/tarun/Documents/Education/Sem_3/Assignments/Blockchain/battleship-blockchain-dapp/contracts/Battleships.sol",
  "compiler": {
    "name": "solc",
    "version": "0.5.8+commit.23d335f2.Emscripten.clang"
  },
  "schemaVersion": "3.0.16",
  "updatedAt": "2019-11-15T12:17:08.246Z",
  "devdoc": {
    "methods": {}
  },
  "userdoc": {
    "methods": {}
  }
}