{
  "contractName": "Battleship",
  "abi": [
    {
      "constant": true,
      "inputs": [
        {
          "name": "",
          "type": "bytes32"
        }
      ],
      "name": "games",
      "outputs": [
        {
          "name": "status",
          "type": "uint8"
        },
        {
          "name": "gridSize",
          "type": "uint8"
        },
        {
          "name": "targetIndex",
          "type": "uint8"
        },
        {
          "name": "owner",
          "type": "address"
        },
        {
          "name": "challenger",
          "type": "address"
        },
        {
          "name": "turn",
          "type": "address"
        },
        {
          "name": "winner",
          "type": "address"
        },
        {
          "name": "funds",
          "type": "uint256"
        },
        {
          "name": "num",
          "type": "uint256"
        },
        {
          "name": "exists",
          "type": "bool"
        }
      ],
      "payable": false,
      "stateMutability": "view",
      "type": "function"
    },
    {
      "constant": true,
      "inputs": [],
      "name": "getstate0",
      "outputs": [
        {
          "name": "",
          "type": "uint256"
        }
      ],
      "payable": false,
      "stateMutability": "view",
      "type": "function"
    },
    {
      "constant": true,
      "inputs": [],
      "name": "getstate1",
      "outputs": [
        {
          "name": "",
          "type": "uint256"
        }
      ],
      "payable": false,
      "stateMutability": "view",
      "type": "function"
    },
    {
      "constant": true,
      "inputs": [],
      "name": "getstate2",
      "outputs": [
        {
          "name": "",
          "type": "uint256"
        }
      ],
      "payable": false,
      "stateMutability": "view",
      "type": "function"
    },
    {
      "constant": true,
      "inputs": [
        {
          "name": "gameId",
          "type": "bytes32"
        }
      ],
      "name": "getStatus",
      "outputs": [
        {
          "name": "",
          "type": "uint8"
        }
      ],
      "payable": false,
      "stateMutability": "view",
      "type": "function"
    },
    {
      "constant": true,
      "inputs": [
        {
          "name": "gameId",
          "type": "bytes32"
        }
      ],
      "name": "getChallenger",
      "outputs": [
        {
          "name": "",
          "type": "address"
        }
      ],
      "payable": false,
      "stateMutability": "view",
      "type": "function"
    },
    {
      "constant": true,
      "inputs": [
        {
          "name": "gameId",
          "type": "bytes32"
        }
      ],
      "name": "getOwner",
      "outputs": [
        {
          "name": "",
          "type": "address"
        }
      ],
      "payable": false,
      "stateMutability": "view",
      "type": "function"
    },
    {
      "constant": true,
      "inputs": [
        {
          "name": "gameId",
          "type": "bytes32"
        }
      ],
      "name": "getWinner",
      "outputs": [
        {
          "name": "",
          "type": "address"
        }
      ],
      "payable": false,
      "stateMutability": "view",
      "type": "function"
    },
    {
      "constant": true,
      "inputs": [
        {
          "name": "gameId",
          "type": "bytes32"
        }
      ],
      "name": "getTurn",
      "outputs": [
        {
          "name": "",
          "type": "address"
        }
      ],
      "payable": false,
      "stateMutability": "view",
      "type": "function"
    },
    {
      "constant": true,
      "inputs": [
        {
          "name": "gameId",
          "type": "bytes32"
        }
      ],
      "name": "getTargetIndex",
      "outputs": [
        {
          "name": "",
          "type": "uint8"
        }
      ],
      "payable": false,
      "stateMutability": "view",
      "type": "function"
    },
    {
      "constant": true,
      "inputs": [
        {
          "name": "gameId",
          "type": "bytes32"
        },
        {
          "name": "player",
          "type": "address"
        }
      ],
      "name": "getGameTarget",
      "outputs": [
        {
          "name": "",
          "type": "int256[]"
        }
      ],
      "payable": false,
      "stateMutability": "view",
      "type": "function"
    },
    {
      "constant": true,
      "inputs": [
        {
          "name": "gameId",
          "type": "bytes32"
        },
        {
          "name": "player",
          "type": "address"
        }
      ],
      "name": "getGameOcean",
      "outputs": [
        {
          "name": "",
          "type": "int256[]"
        }
      ],
      "payable": false,
      "stateMutability": "view",
      "type": "function"
    },
    {
      "constant": false,
      "inputs": [
        {
          "name": "gameId",
          "type": "bytes32"
        },
        {
          "name": "secret",
          "type": "bytes32"
        }
      ],
      "name": "joinGame",
      "outputs": [],
      "payable": true,
      "stateMutability": "payable",
      "type": "function"
    },
    {
      "constant": false,
      "inputs": [
        {
          "name": "gameId",
          "type": "bytes32"
        },
        {
          "name": "x",
          "type": "uint8"
        },
        {
          "name": "y",
          "type": "uint8"
        }
      ],
      "name": "attack",
      "outputs": [],
      "payable": true,
      "stateMutability": "payable",
      "type": "function"
    },
    {
      "constant": false,
      "inputs": [
        {
          "name": "gameId",
          "type": "bytes32"
        },
        {
          "name": "hitt",
          "type": "bool"
        }
      ],
      "name": "announceStatus",
      "outputs": [],
      "payable": false,
      "stateMutability": "nonpayable",
      "type": "function"
    },
    {
      "constant": false,
      "inputs": [
        {
          "name": "gameId",
          "type": "bytes32"
        },
        {
          "name": "salt",
          "type": "string"
        },
        {
          "name": "ship",
          "type": "string"
        },
        {
          "name": "player",
          "type": "address"
        }
      ],
      "name": "reveal",
      "outputs": [],
      "payable": false,
      "stateMutability": "nonpayable",
      "type": "function"
    },
    {
      "constant": false,
      "inputs": [
        {
          "name": "gameId",
          "type": "bytes32"
        }
      ],
      "name": "withdraw",
      "outputs": [],
      "payable": false,
      "stateMutability": "nonpayable",
      "type": "function"
    },
    {
      "constant": false,
      "inputs": [
        {
          "name": "grid",
          "type": "int256[]"
        }
      ],
      "name": "getGridState",
      "outputs": [
        {
          "name": "",
          "type": "uint256[3]"
        }
      ],
      "payable": true,
      "stateMutability": "payable",
      "type": "function"
    },
    {
      "constant": true,
      "inputs": [
        {
          "name": "player",
          "type": "address"
        },
        {
          "name": "gameId",
          "type": "bytes32"
        }
      ],
      "name": "getMoveList",
      "outputs": [
        {
          "name": "",
          "type": "uint8[100]"
        }
      ],
      "payable": false,
      "stateMutability": "view",
      "type": "function"
    }
  ],
  "bytecode": "0x60806040526103e860005560006001556000600255600060035534801561002557600080fd5b506124ba806100356000396000f3fe6080604052600436106101145760003560e01c80638cb563b2116100a0578063c513296111610064578063c513296114610829578063d62d16fc14610871578063deb931a2146108ec578063f579f88214610967578063fe0529f514610ac357610114565b80638cb563b2146104f35780638e19899e1461067c578063b1f3e90f146106b7578063bea6a18a146106e2578063c07771561461077957610114565b80635de28ae0116100e75780635de28ae0146102225780637110bfb21461027f578063820e0d1f1461032f57806382f2fdf5146103aa578063862f854b1461049e57610114565b80631e5f9149146101195780632156fc3f146101945780634939ce3e146101bf5780634df10267146101ea575b600080fd5b34801561012557600080fd5b506101526004803603602081101561013c57600080fd5b8101908080359060200190929190505050610b0a565b604051808273ffffffffffffffffffffffffffffffffffffffff1673ffffffffffffffffffffffffffffffffffffffff16815260200191505060405180910390f35b3480156101a057600080fd5b506101a9610b4a565b6040518082815260200191505060405180910390f35b3480156101cb57600080fd5b506101d4610b54565b6040518082815260200191505060405180910390f35b6102206004803603604081101561020057600080fd5b810190808035906020019092919080359060200190929190505050610b5e565b005b34801561022e57600080fd5b5061025b6004803603602081101561024557600080fd5b810190808035906020019092919050505061110f565b6040518082600481111561026b57fe5b60ff16815260200191505060405180910390f35b34801561028b57600080fd5b506102d8600480360360408110156102a257600080fd5b8101908080359060200190929190803573ffffffffffffffffffffffffffffffffffffffff16906020019092919050505061113c565b6040518080602001828103825283818151815260200191508051906020019060200280838360005b8381101561031b578082015181840152602081019050610300565b505050509050019250505060405180910390f35b34801561033b57600080fd5b506103686004803603602081101561035257600080fd5b81019080803590602001909291905050506111e8565b604051808273ffffffffffffffffffffffffffffffffffffffff1673ffffffffffffffffffffffffffffffffffffffff16815260200191505060405180910390f35b610460600480360360208110156103c057600080fd5b81019080803590602001906401000000008111156103dd57600080fd5b8201836020820111156103ef57600080fd5b8035906020019184602083028401116401000000008311171561041157600080fd5b919080806020026020016040519081016040528093929190818152602001838360200280828437600081840152601f19601f820116905080830192505050505050509192919290505050611228565b6040518082600360200280838360005b8381101561048b578082015181840152602081019050610470565b5050505090500191505060405180910390f35b3480156104aa57600080fd5b506104d7600480360360208110156104c157600080fd5b810190808035906020019092919050505061133f565b604051808260ff1660ff16815260200191505060405180910390f35b3480156104ff57600080fd5b5061067a6004803603608081101561051657600080fd5b81019080803590602001909291908035906020019064010000000081111561053d57600080fd5b82018360208201111561054f57600080fd5b8035906020019184600183028401116401000000008311171561057157600080fd5b91908080601f016020809104026020016040519081016040528093929190818152602001838380828437600081840152601f19601f820116905080830192505050505050509192919290803590602001906401000000008111156105d457600080fd5b8201836020820111156105e657600080fd5b8035906020019184600183028401116401000000008311171561060857600080fd5b91908080601f016020809104026020016040519081016040528093929190818152602001838380828437600081840152601f19601f820116905080830192505050505050509192919290803573ffffffffffffffffffffffffffffffffffffffff16906020019092919050505061136c565b005b34801561068857600080fd5b506106b56004803603602081101561069f57600080fd5b8101908080359060200190929190505050611645565b005b3480156106c357600080fd5b506106cc611746565b6040518082815260200191505060405180910390f35b3480156106ee57600080fd5b5061073b6004803603604081101561070557600080fd5b81019080803573ffffffffffffffffffffffffffffffffffffffff16906020019092919080359060200190929190505050611750565b6040518082606460200280838360005b8381101561076657808201518184015260208101905061074b565b5050505090500191505060405180910390f35b34801561078557600080fd5b506107d26004803603604081101561079c57600080fd5b8101908080359060200190929190803573ffffffffffffffffffffffffffffffffffffffff1690602001909291905050506118c2565b6040518080602001828103825283818151815260200191508051906020019060200280838360005b838110156108155780820151818401526020810190506107fa565b505050509050019250505060405180910390f35b61086f6004803603606081101561083f57600080fd5b8101908080359060200190929190803560ff169060200190929190803560ff16906020019092919050505061197d565b005b34801561087d57600080fd5b506108aa6004803603602081101561089457600080fd5b8101908080359060200190929190505050611c7b565b604051808273ffffffffffffffffffffffffffffffffffffffff1673ffffffffffffffffffffffffffffffffffffffff16815260200191505060405180910390f35b3480156108f857600080fd5b506109256004803603602081101561090f57600080fd5b8101908080359060200190929190505050611cbb565b604051808273ffffffffffffffffffffffffffffffffffffffff1673ffffffffffffffffffffffffffffffffffffffff16815260200191505060405180910390f35b34801561097357600080fd5b506109a06004803603602081101561098a57600080fd5b8101908080359060200190929190505050611cfb565b604051808b60048111156109b057fe5b60ff1681526020018a60ff1660ff1681526020018960ff1660ff1681526020018873ffffffffffffffffffffffffffffffffffffffff1673ffffffffffffffffffffffffffffffffffffffff1681526020018773ffffffffffffffffffffffffffffffffffffffff1673ffffffffffffffffffffffffffffffffffffffff1681526020018673ffffffffffffffffffffffffffffffffffffffff1673ffffffffffffffffffffffffffffffffffffffff1681526020018573ffffffffffffffffffffffffffffffffffffffff1673ffffffffffffffffffffffffffffffffffffffff168152602001848152602001838152602001821515151581526020019a505050505050505050505060405180910390f35b348015610acf57600080fd5b50610b0860048036036040811015610ae657600080fd5b8101908080359060200190929190803515159060200190929190505050611e03565b005b6000600b600083815260200190815260200160002060030160009054906101000a900473ffffffffffffffffffffffffffffffffffffffff169050919050565b6000600554905090565b6000600454905090565b8160006004811115610b6c57fe5b600b600083815260200190815260200160002060000160009054906101000a900460ff166004811115610b9b57fe5b14610ba557600080fd5b600054341015610c1d576040517f08c379a00000000000000000000000000000000000000000000000000000000081526004018080602001828103825260148152602001807f6269742061746c6561737420313030302057656900000000000000000000000081525060200191505060405180910390fd5b600b600084815260200190815260200160002060120160009054906101000a900460ff16610eb2576000600b6000858152602001908152602001600020600501819055506000600b600085815260200190815260200160002060000160006101000a81548160ff02191690836004811115610c9457fe5b0217905550600a600b600085815260200190815260200160002060000160016101000a81548160ff021916908360ff16021790555033600b600085815260200190815260200160002060000160036101000a81548173ffffffffffffffffffffffffffffffffffffffff021916908373ffffffffffffffffffffffffffffffffffffffff16021790555033600b600085815260200190815260200160002060020160006101000a81548173ffffffffffffffffffffffffffffffffffffffff021916908373ffffffffffffffffffffffffffffffffffffffff16021790555081600b600085815260200190815260200160002060060160003373ffffffffffffffffffffffffffffffffffffffff1673ffffffffffffffffffffffffffffffffffffffff168152602001908152602001600020819055506064604051908082528060200260200182016040528015610dfb5781602001602082028038833980820191505090505b50600b600085815260200190815260200160002060080160003373ffffffffffffffffffffffffffffffffffffffff1673ffffffffffffffffffffffffffffffffffffffff1681526020019081526020016000209080519060200190610e62929190612332565b5034600b6000858152602001908152602001600020600401819055506001600b600085815260200190815260200160002060120160006101000a81548160ff02191690831515021790555061110a565b34600b60008581526020019081526020016000206004015414610f3d576040517f08c379a00000000000000000000000000000000000000000000000000000000081526004018080602001828103825260128152602001807f696e73756666696369656e742066756e6473000000000000000000000000000081525060200191505060405180910390fd5b6001600b600085815260200190815260200160002060000160006101000a81548160ff02191690836004811115610f7057fe5b021790555033600b600085815260200190815260200160002060010160006101000a81548173ffffffffffffffffffffffffffffffffffffffff021916908373ffffffffffffffffffffffffffffffffffffffff16021790555081600b600085815260200190815260200160002060060160003373ffffffffffffffffffffffffffffffffffffffff1673ffffffffffffffffffffffffffffffffffffffff168152602001908152602001600020819055506002600b600085815260200190815260200160002060000160019054906101000a900460ff1660ff160a60ff1660405190808252806020026020018201604052801561107d5781602001602082028038833980820191505090505b50600b600085815260200190815260200160002060080160003373ffffffffffffffffffffffffffffffffffffffff1673ffffffffffffffffffffffffffffffffffffffff16815260200190815260200160002090805190602001906110e4929190612332565b5034600b6000858152602001908152602001600020600401600082825401925050819055505b505050565b6000600b600083815260200190815260200160002060000160009054906101000a900460ff169050919050565b6060600b600084815260200190815260200160002060080160008373ffffffffffffffffffffffffffffffffffffffff1673ffffffffffffffffffffffffffffffffffffffff1681526020019081526020016000208054806020026020016040519081016040528092919081815260200182805480156111db57602002820191906000526020600020905b8154815260200190600101908083116111c7575b5050505050905092915050565b6000600b600083815260200190815260200160002060010160009054906101000a900473ffffffffffffffffffffffffffffffffffffffff169050919050565b61123061237f565b60006002819055506000600181905550600060038190555060008090505b8251811015611316577fffffffffffffffffffffffffffffffffffffffffffffffffffffffffffffffff60000b83828151811061128757fe5b602002602001015114156112a8576001600081548092919060010191905055505b600160000b8382815181106112b957fe5b602002602001015114156112da576002600081548092919060010191905055505b60008382815181106112e857fe5b60200260200101511415611309576003600081548092919060010191905055505b808060010191505061124e565b506040518060600160405280600154815260200160025481526020016003548152509050919050565b6000600b600083815260200190815260200160002060000160029054906101000a900460ff169050919050565b836003600481111561137a57fe5b600b600083815260200190815260200160002060000160009054906101000a900460ff1660048111156113a957fe5b146113b357600080fd5b84600b600082815260200190815260200160002060000160039054906101000a900473ffffffffffffffffffffffffffffffffffffffff1673ffffffffffffffffffffffffffffffffffffffff163373ffffffffffffffffffffffffffffffffffffffff1614806114855750600b600082815260200190815260200160002060010160009054906101000a900473ffffffffffffffffffffffffffffffffffffffff1673ffffffffffffffffffffffffffffffffffffffff163373ffffffffffffffffffffffffffffffffffffffff16145b61148e57600080fd5b856000600b600083815260200190815260200160002060070160003373ffffffffffffffffffffffffffffffffffffffff1673ffffffffffffffffffffffffffffffffffffffff1681526020019081526020016000208054600181600116156101000203166002900490501461150357600080fd5b600b600088815260200190815260200160002060060160008573ffffffffffffffffffffffffffffffffffffffff1673ffffffffffffffffffffffffffffffffffffffff168152602001908152602001600020546115618787611f97565b146115d4576040517f08c379a000000000000000000000000000000000000000000000000000000000815260040180806020018281038252600c8152602001807f796f75206368656174656421000000000000000000000000000000000000000081525060200191505060405180910390fd5b84600b600089815260200190815260200160002060070160008673ffffffffffffffffffffffffffffffffffffffff1673ffffffffffffffffffffffffffffffffffffffff168152602001908152602001600020908051906020019061163b9291906123a1565b5050505050505050565b8060048081111561165257fe5b600b600083815260200190815260200160002060000160009054906101000a900460ff16600481111561168157fe5b1461168b57600080fd5b3373ffffffffffffffffffffffffffffffffffffffff16600b600083815260200190815260200160002060030160009054906101000a900473ffffffffffffffffffffffffffffffffffffffff1673ffffffffffffffffffffffffffffffffffffffff16146116f957600080fd5b3373ffffffffffffffffffffffffffffffffffffffff166108fc6000549081150290604051600060405180830381858888f19350505050158015611741573d6000803e3d6000fd5b505050565b6000600654905090565b611758612421565b8273ffffffffffffffffffffffffffffffffffffffff16600b600084815260200190815260200160002060000160039054906101000a900473ffffffffffffffffffffffffffffffffffffffff1673ffffffffffffffffffffffffffffffffffffffff16141561184157600b6000838152602001908152602001600020600a01606480602002604051908101604052809291908260648015611835576020028201916000905b82829054906101000a900460ff1660ff16815260200190600101906020826000010492830192600103820291508084116117fe5790505b505050505090506118bc565b600b6000838152602001908152602001600020600e016064806020026040519081016040528092919082606480156118b4576020028201916000905b82829054906101000a900460ff1660ff168152602001906001019060208260000104928301926001038202915080841161187d5790505b505050505090505b92915050565b606060006118d08484612066565b9050600b600085815260200190815260200160002060080160008273ffffffffffffffffffffffffffffffffffffffff1673ffffffffffffffffffffffffffffffffffffffff16815260200190815260200160002080548060200260200160405190810160405280929190818152602001828054801561196f57602002820191906000526020600020905b81548152602001906001019080831161195b575b505050505091505092915050565b82600b600082815260200190815260200160002060020160009054906101000a900473ffffffffffffffffffffffffffffffffffffffff1673ffffffffffffffffffffffffffffffffffffffff163373ffffffffffffffffffffffffffffffffffffffff16146119ec57600080fd5b60006119f8848461214d565b90506000611a068633612066565b9050600960019054906101000a900460ff16611a80576002600b600088815260200190815260200160002060000160006101000a81548160ff02191690836004811115611a4f57fe5b0217905550611a6086338385612162565b6001600960016101000a81548160ff021916908315150217905550611c73565b611a8c86338385612162565b611a9461237f565b611b3e600b600089815260200190815260200160002060080160008473ffffffffffffffffffffffffffffffffffffffff1673ffffffffffffffffffffffffffffffffffffffff168152602001908152602001600020805480602002602001604051908101604052809291908181526020018280548015611b3457602002820191906000526020600020905b815481526020019060010190808311611b20575b5050505050611228565b905060006011905081600060038110611b5357fe5b602002015160058190555081600160038110611b6b57fe5b602002015160048190555081600260038110611b8357fe5b602002015160068190555060008183600160038110611b9e57fe5b602002015110159050600083600260038110611bb657fe5b602002015184600160038110611bc857fe5b602002015184031190508180611bdb5750805b15611c6e576003600b60008c815260200190815260200160002060000160006101000a81548160ff02191690836004811115611c1357fe5b021790555084600b60008c815260200190815260200160002060030160006101000a81548173ffffffffffffffffffffffffffffffffffffffff021916908373ffffffffffffffffffffffffffffffffffffffff1602179055505b505050505b505050505050565b6000600b600083815260200190815260200160002060020160009054906101000a900473ffffffffffffffffffffffffffffffffffffffff169050919050565b6000600b600083815260200190815260200160002060000160039054906101000a900473ffffffffffffffffffffffffffffffffffffffff169050919050565b600b6020528060005260406000206000915090508060000160009054906101000a900460ff16908060000160019054906101000a900460ff16908060000160029054906101000a900460ff16908060000160039054906101000a900473ffffffffffffffffffffffffffffffffffffffff16908060010160009054906101000a900473ffffffffffffffffffffffffffffffffffffffff16908060020160009054906101000a900473ffffffffffffffffffffffffffffffffffffffff16908060030160009054906101000a900473ffffffffffffffffffffffffffffffffffffffff16908060040154908060050154908060120160009054906101000a900460ff1690508a565b8160026004811115611e1157fe5b600b600083815260200190815260200160002060000160009054906101000a900460ff166004811115611e4057fe5b14611e4a57600080fd5b82600b600082815260200190815260200160002060020160009054906101000a900473ffffffffffffffffffffffffffffffffffffffff1673ffffffffffffffffffffffffffffffffffffffff163373ffffffffffffffffffffffffffffffffffffffff1614611eb957600080fd5b6000600b600086815260200190815260200160002060000160029054906101000a900460ff1690506000611eed8633612066565b905084611f1a577fffffffffffffffffffffffffffffffffffffffffffffffffffffffffffffffff611f1d565b60015b60000b600b600088815260200190815260200160002060080160008373ffffffffffffffffffffffffffffffffffffffff1673ffffffffffffffffffffffffffffffffffffffff1681526020019081526020016000208360ff1681548110611f8157fe5b9060005260206000200181905550505050505050565b600082826040516020018083805190602001908083835b60208310611fd15780518252602082019150602081019050602083039250611fae565b6001836020036101000a03801982511681845116808217855250505050505090500182805190602001908083835b602083106120225780518252602082019150602081019050602083039250611fff565b6001836020036101000a0380198251168184511680821785525050505050509050019250505060405160208183030381529060405280519060200120905092915050565b60008173ffffffffffffffffffffffffffffffffffffffff16600b600085815260200190815260200160002060000160039054906101000a900473ffffffffffffffffffffffffffffffffffffffff1673ffffffffffffffffffffffffffffffffffffffff161461210d57600b600084815260200190815260200160002060000160039054906101000a900473ffffffffffffffffffffffffffffffffffffffff16612145565b600b600084815260200190815260200160002060010160009054906101000a900473ffffffffffffffffffffffffffffffffffffffff165b905092915050565b60008082600a85020190508091505092915050565b80600b600086815260200190815260200160002060000160026101000a81548160ff021916908360ff16021790555081600b600086815260200190815260200160002060020160006101000a81548173ffffffffffffffffffffffffffffffffffffffff021916908373ffffffffffffffffffffffffffffffffffffffff1602179055508273ffffffffffffffffffffffffffffffffffffffff16600b600086815260200190815260200160002060000160039054906101000a900473ffffffffffffffffffffffffffffffffffffffff1673ffffffffffffffffffffffffffffffffffffffff1614156122d35780600b6000868152602001908152602001600020600a01600b6000878152602001908152602001600020600501546064811061228857fe5b602091828204019190066101000a81548160ff021916908360ff160217905550600b60008581526020019081526020016000206005016000815480929190600101919050555061232c565b80600b6000868152602001908152602001600020600e01600b6000878152602001908152602001600020600501546064811061230b57fe5b602091828204019190066101000a81548160ff021916908360ff1602179055505b50505050565b82805482825590600052602060002090810192821561236e579160200282015b8281111561236d578251825591602001919060010190612352565b5b50905061237b9190612444565b5090565b6040518060600160405280600390602082028038833980820191505090505090565b828054600181600116156101000203166002900490600052602060002090601f016020900481019282601f106123e257805160ff1916838001178555612410565b82800160010185558215612410579182015b8281111561240f5782518255916020019190600101906123f4565b5b50905061241d9190612469565b5090565b60405180610c800160405280606490602082028038833980820191505090505090565b61246691905b8082111561246257600081600090555060010161244a565b5090565b90565b61248b91905b8082111561248757600081600090555060010161246f565b5090565b9056fea165627a7a723058201a156b058f6aab207e7fbe3638f48cd4569a1adf6ecf8c30a3b83a29b06b528b0029",
  "source": "pragma solidity >=0.4.22 <0.6.0;\n\ncontract Battleship \n{\n  uint8 constant GRID_SIZE = 10;\n  uint8 constant SHIP_CARRIER = 5;\n  uint8 constant SHIP_BATTLESHIP = 4;\n  uint8 constant SHIP_CRUISER = 3;\n  uint8 constant SHIP_SUBMARINE = 3;\n  uint8 constant SHIP_DESTROYER = 2;\n  uint private bidAmount = 1000;\n  int8 constant HIT = 1;\n  int8 constant MISS = -1;\n  uint miss = 0;\n  uint hit = 0;\n  uint empty = 0;\n  uint win;\n  uint lost;\n  uint nothin;\n  bytes positions;\n  uint shipp;\n  bytes1 cnt;\n  bool isCounterAttack;\n  bytes32 secret_test;//=0x1bd1a2e6d0afcba49b2ce8cd8749126088dcbc0916ca2ac53e363cd5820db3c9;\n  enum GameStatus { OPEN, READY, STARTED, FINISHED, DONE }\n  struct Game {\n    GameStatus status;\n    uint8 gridSize; //board size\n    uint8 targetIndex; //index of the attack this user makes\n    address payable owner; // who created the game\n    address payable challenger; // who joined the already created game\n    address turn; // whose turn\n    address winner; // who's the winner\n    uint funds;// amount required to play\n    uint num; // move number\n    mapping (address => bytes32) secrets; // hashes of board\n    mapping (address => string) ships; // (ocean board)original location of ships , will be stored during reveal\n    mapping (address => int[]) targets; // target board corresponding to a user\n    mapping (address => bool) cheated; // did a particular user cheat\n    uint8[100] moves_owner; // list of moves player1\n    uint8[100] moves_challenger;  // list of moves player2\n    bool exists;\n  }\n  \n  // Game[] public games;\n  mapping (bytes32 => Game) public games;\n\n  // mapping (address => uint[]) private game_list_of_a_player;\n\n  modifier onlyPlayer(bytes32 gameId) {\n    require(msg.sender == games[gameId].owner || msg.sender == games[gameId].challenger); // either player1 or player2 only\n    _;\n  }\n\n  modifier onlyWinner(bytes32 gameId) {\n    require(games[gameId].status == GameStatus.DONE); \n    require(games[gameId].winner == msg.sender); \n    _;\n  }\n\n  modifier myTurn(bytes32 gameId) {\n    require(msg.sender == games[gameId].turn);\n    _;\n  }\n\n  modifier gameOpen(bytes32 gameId) {\n    require(games[gameId].status == GameStatus.OPEN);\n    _;\n  }\n\n  modifier gameReady(bytes32 gameId) {\n    require(games[gameId].status == GameStatus.READY);\n    _;\n  }\n\n  modifier gameStarted(bytes32 gameId) {\n    require(games[gameId].status == GameStatus.STARTED);\n    _;\n  }\n\n  modifier gameFinished(bytes32 gameId) {\n    require(games[gameId].status == GameStatus.FINISHED);\n    _;\n  }\n\n  modifier notRevealed(bytes32 gameId) {\n    require(bytes(games[gameId].ships[msg.sender]).length == 0); // not revealed => not yet stored in ocean board\n    _;\n  }\n\n// function getHash(uint gameId) external view returns(uint)\n//   {\n//     return shipp;\n//   }\n  \n  function getstate0() public view returns(uint)\n  {\n    return lost;\n  }\n  function getstate1() public view returns(uint)\n  {\n    return win;\n  }\n  function getstate2() public view returns(uint)\n  {\n    return nothin;\n  }\n  function getStatus(bytes32 gameId) external view returns(GameStatus)\n  {\n    return games[gameId].status;\n  }\n  function getChallenger(bytes32 gameId) external view returns(address)\n  {\n    return games[gameId].challenger;\n  }\n  function getOwner(bytes32 gameId) external view returns(address)\n  {\n    return games[gameId].owner;\n  }\n  function getWinner(bytes32 gameId) external view returns(address)\n  {\n    return games[gameId].winner;\n  }\n  function getTurn(bytes32 gameId) external view returns(address)\n  {\n    return games[gameId].turn;\n  }\n  function getTargetIndex(bytes32 gameId) external view returns(uint8)\n  {\n    return games[gameId].targetIndex;\n  }\n  // function getgame_list_of_a_player(address player) external view returns(uint[] memory)\n  // {\n  //   return game_list_of_a_player[player];\n  // }\n\n  function getGameTarget(bytes32 gameId, address player) external view returns(int[] memory)\n  {\n    return games[gameId].targets[player];\n  }\n\n  function getGameOcean(bytes32 gameId, address player) external view returns(int[] memory)\n  {\n    address opponent = getOpponent(gameId, player);\n\n    return games[gameId].targets[opponent];\n  }\n\n  \n  // function createGame(bytes32 gameId, uint8 gridSize, bytes32 secret) public payable\n  // {\n  //   require (msg.value == bidAmount,\"bid 1 ether\");\n  //   // uint gameId = games.length;\n  //   // games.length++;\n  //   games[gameId].num = 0;\n  //   games[gameId].status = GameStatus.OPEN; // created\n  //   games[gameId].gridSize = gridSize;\n  //   games[gameId].owner = msg.sender;\n  //   games[gameId].turn = msg.sender; // set player1's turn\n  //   games[gameId].secrets[msg.sender] = secret;\n  //   games[gameId].targets[msg.sender] = new int[](gridSize ** 2); // make new target board for player1\n  //   games[gameId].funds = msg.value;\n\n  //   // game_list_of_a_player[msg.sender].push(gameId);\n\n  // }\n\n  function joinGame(bytes32 gameId, bytes32 secret) public payable gameOpen(gameId)\n  {\n    require (msg.value >= bidAmount,\"bit atleast 1000 Wei\"); \n    // require(games[gameId].owner != msg.sender ,\"owner cannot join again, he already has!\"); \n    if(!games[gameId].exists)\n    {\n        games[gameId].num = 0;\n        games[gameId].status = GameStatus.OPEN; // created\n        games[gameId].gridSize = 10;\n        games[gameId].owner = msg.sender;\n        games[gameId].turn = msg.sender; // set player1's turn\n        games[gameId].secrets[msg.sender] = secret;\n        games[gameId].targets[msg.sender] = new int[](100); // make new target board for player1\n        games[gameId].funds = msg.value;  \n        games[gameId].exists = true;\n    }\n    else\n    {\n        require(games[gameId].funds == msg.value,\"insufficient funds\");\n\n        games[gameId].status = GameStatus.READY;\n        games[gameId].challenger = msg.sender; // player2 is the challenger\n        games[gameId].secrets[msg.sender] = secret;\n        games[gameId].targets[msg.sender] = new int[](games[gameId].gridSize ** 2); // make new target board for player2\n        games[gameId].funds += msg.value;\n    }\n    // game_list_of_a_player[msg.sender].push(gameId);\n  }\n\n  function convert_to_1D(uint8 x, uint8 y) private pure returns(uint8)\n  {\n    uint8 ans = (x * 10) + y;\n    return(ans);\n  }\n  function attack(bytes32 gameId, uint8 x,uint8 y) public payable myTurn(gameId)\n  {\n    uint8 index = convert_to_1D(x,y);\n    address opponent = getOpponent(gameId, msg.sender);\n\n    if(!isCounterAttack)\n    {\n      games[gameId].status = GameStatus.STARTED; // first attack happened\n\n      _attack(gameId, msg.sender, opponent, index);\n      isCounterAttack = true;\n    }\n    else\n    {\n      _attack(gameId, msg.sender, opponent, index);\n      uint[3] memory state = getGridState(games[gameId].targets[opponent]);\n      uint fleet = 17;//getFleetSize(games[gameId].gridSize);\n      lost = state[0];\n      win = state[1];\n      nothin = state[2];\n      bool isWon = state[1] >= fleet;\n      bool isVoid = (fleet - state[1]) > state[2];\n      if (isWon || isVoid) {\n        games[gameId].status = GameStatus.FINISHED;\n        games[gameId].winner = opponent;\n      }\n    }\n  }\n\n  // function counterAttack(bytes32 gameId, uint8 x, uint8 y) public payable gameStarted(gameId) myTurn(gameId)\n  // {\n  //   uint8 index = convert_to_1D(x,y);  \n  //   address payable opponent = getOpponent(gameId, msg.sender);\n  //   _attack(gameId, msg.sender, opponent, index);\n  //   uint[3] memory state = getGridState(games[gameId].targets[opponent]);\n  //   uint fleet = 17;//getFleetSize(games[gameId].gridSize);\n  //   lost = state[0];\n  //   win = state[1];\n  //   nothin = state[2];\n  //   bool isWon = state[1] >= fleet;\n  //   bool isVoid = (fleet - state[1]) > state[2];\n  //   if (isWon || isVoid) {\n  //     games[gameId].status = GameStatus.FINISHED;\n  //     games[gameId].winner = opponent;\n  //   }\n  // }\n\n  function announceStatus(bytes32 gameId, bool hitt) public gameStarted(gameId) myTurn(gameId) {\n    uint8 targetIndex = games[gameId].targetIndex;\n    address payable opponent = getOpponent(gameId, msg.sender);\n    games[gameId].targets[opponent][targetIndex] = hitt ? HIT : MISS;\n  }\n\n  function reveal(bytes32 gameId, string memory salt, string memory ship, address player) public gameFinished(gameId) onlyPlayer(gameId) notRevealed(gameId)\n  {\n    require(getSecret(salt, ship) == games[gameId].secrets[player],\"you cheated!\");\n    games[gameId].ships[player] = ship;\n  }\n\n  function withdraw(bytes32 gameId) public onlyWinner(gameId) {\n    // uint amount = games[gameId].funds;\n    // games[gameId].funds = 0;\n    msg.sender.transfer(bidAmount);\n  }\n\n  function _attack(bytes32 gameId, address attacker, address defender, uint8 index) internal {\n    games[gameId].targetIndex = index;\n    games[gameId].turn = defender; // Toggle turn\n    if(games[gameId].owner == attacker)\n    {\n      games[gameId].moves_owner[games[gameId].num]=index;\n      games[gameId].num ++;\n    }\n    else\n    {\n      games[gameId].moves_challenger[games[gameId].num]=index;\n    }\n\n  }\n\n\n  function getOpponent(bytes32 gameId, address player) internal view returns(address payable) {\n    return games[gameId].owner == player ? games[gameId].challenger : games[gameId].owner;\n  }\n\n  function getSecret(string memory ships, string memory salt) private pure returns(bytes32) {\n    return keccak256(abi.encodePacked(ships, salt));\n  }\n\n\n  function getGridState(int[] memory grid)public payable returns(uint[3] memory) {\n    hit = 0;\n    miss = 0;\n    empty = 0;\n    for (uint i = 0; i < grid.length; i++) {\n      if (grid[i] == MISS) {\n        miss++;\n      }\n\n      if (grid[i] == HIT) {\n        hit++;\n      }\n\n      if (grid[i] == 0) {\n        empty++;\n      }\n    }\n\n    return [miss, hit, empty];\n  }\n\n  function getMoveList(address player,bytes32 gameId) public view returns(uint8[100] memory)\n  {\n    if(games[gameId].owner == player)\n      return games[gameId].moves_owner;\n    else\n      return games[gameId].moves_challenger;\n  }\n  // function getFleetSize(uint8 gridSize) internal pure returns(uint) {\n  //     // gridSize=10;\n  //   return SHIP_CARRIER + SHIP_BATTLESHIP + SHIP_CRUISER + SHIP_SUBMARINE + SHIP_DESTROYER;\n  // }\n\n \n}\n",
  "sourcePath": "/home/tarun/Documents/Education/Sem_3/Assignments/Blockchain/battleship-blockchain-dapp/contracts/Battleships.sol",
  "compiler": {
    "name": "solc",
    "version": "0.5.8+commit.23d335f2.Emscripten.clang"
  },
  "schemaVersion": "3.0.16",
  "updatedAt": "2019-11-29T05:55:55.635Z",
  "devdoc": {
    "methods": {}
  },
  "userdoc": {
    "methods": {}
  }
}